{
  "contractName": "Model",
  "abi": [
    {
      "constant": true,
      "inputs": [
        {
          "name": "",
          "type": "uint256"
        }
      ],
      "name": "manufacturerDetailsMap",
      "outputs": [
        {
          "name": "batch_no",
          "type": "uint256"
        },
        {
          "name": "manufactured_product_quantity",
          "type": "uint256"
        },
        {
          "name": "manufactured_product_mrp",
          "type": "uint256"
        },
        {
          "name": "manufactured_product_selling_price",
          "type": "uint256"
        },
        {
          "name": "manufactured_product_name",
          "type": "string"
        },
        {
          "name": "manufactured_product_buyer_name",
          "type": "string"
        },
        {
          "name": "manufactured_product_loaction",
          "type": "string"
        },
        {
          "name": "manufactured_product_selling_date",
          "type": "string"
        },
        {
          "name": "manufactured_product_mfg_date",
          "type": "string"
        },
        {
          "name": "manufactured_product_exp_date",
          "type": "string"
        },
        {
          "name": "manufactured_product_description",
          "type": "string"
        }
      ],
      "payable": false,
      "stateMutability": "view",
      "type": "function",
      "signature": "0x476ca6f6"
    },
    {
      "constant": true,
      "inputs": [
        {
          "name": "",
          "type": "uint256"
        }
      ],
      "name": "raw_products",
      "outputs": [
        {
          "name": "",
          "type": "uint256"
        }
      ],
      "payable": false,
      "stateMutability": "view",
      "type": "function",
      "signature": "0x55cece13"
    },
    {
      "constant": true,
      "inputs": [
        {
          "name": "",
          "type": "uint256"
        }
      ],
      "name": "farmerDetailsMap",
      "outputs": [
        {
          "name": "batch_no",
          "type": "uint256"
        },
        {
          "name": "crop_name",
          "type": "string"
        },
        {
          "name": "buyer_name",
          "type": "string"
        },
        {
          "name": "location",
          "type": "string"
        },
        {
          "name": "crop_quantity",
          "type": "uint256"
        },
        {
          "name": "crop_selling_price",
          "type": "uint256"
        },
        {
          "name": "selling_date",
          "type": "string"
        },
        {
          "name": "crop_description",
          "type": "string"
        }
      ],
      "payable": false,
      "stateMutability": "view",
      "type": "function",
      "signature": "0xa2a5d2ab"
    },
    {
      "constant": true,
      "inputs": [
        {
          "name": "",
          "type": "uint256"
        },
        {
          "name": "",
          "type": "uint256"
        }
      ],
      "name": "preprocessorHash",
      "outputs": [
        {
          "name": "",
          "type": "uint256"
        }
      ],
      "payable": false,
      "stateMutability": "view",
      "type": "function",
      "signature": "0xb93ac27d"
    },
    {
      "constant": true,
      "inputs": [
        {
          "name": "",
          "type": "uint256"
        }
      ],
      "name": "preProcessorDetailsMap",
      "outputs": [
        {
          "name": "batch_no",
          "type": "uint256"
        },
        {
          "name": "processed_product_quantity",
          "type": "uint256"
        },
        {
          "name": "processed_product_selling_price",
          "type": "uint256"
        },
        {
          "name": "processed_product_name",
          "type": "string"
        },
        {
          "name": "processed_product_buyer_name",
          "type": "string"
        },
        {
          "name": "processed_product_location",
          "type": "string"
        },
        {
          "name": "processed_product_preocessing_date",
          "type": "string"
        },
        {
          "name": "processed_product_selling_date",
          "type": "string"
        },
        {
          "name": "processed_product_description",
          "type": "string"
        }
      ],
      "payable": false,
      "stateMutability": "view",
      "type": "function",
      "signature": "0xc5fa72a4"
    },
    {
      "constant": true,
      "inputs": [
        {
          "name": "",
          "type": "uint256"
        },
        {
          "name": "",
          "type": "uint256"
        }
      ],
      "name": "manufacturerHash",
      "outputs": [
        {
          "name": "",
          "type": "uint256"
        }
      ],
      "payable": false,
      "stateMutability": "view",
      "type": "function",
      "signature": "0xe97d5c0e"
    },
    {
      "constant": false,
      "inputs": [
        {
          "name": "_product_batch_no",
          "type": "uint256"
        },
        {
          "name": "_raw_batch_no_arr",
          "type": "uint256[]"
        }
      ],
      "name": "addPreProcessorHashDetails",
      "outputs": [],
      "payable": false,
      "stateMutability": "nonpayable",
      "type": "function",
      "signature": "0x88c18b52"
    },
    {
      "constant": false,
      "inputs": [
        {
          "name": "_product_batch_no",
          "type": "uint256"
        },
        {
          "name": "_raw_batch_no_arr",
          "type": "uint256[]"
        }
      ],
      "name": "addManufacturerHashDetails",
      "outputs": [],
      "payable": false,
      "stateMutability": "nonpayable",
      "type": "function",
      "signature": "0xc3740565"
    },
    {
      "constant": false,
      "inputs": [
        {
          "name": "_batch_no",
          "type": "uint256"
        },
        {
          "name": "_crop_name",
          "type": "string"
        },
        {
          "name": "_buyer_name",
          "type": "string"
        },
        {
          "name": "_location",
          "type": "string"
        },
        {
          "name": "_crop_quantity",
          "type": "uint256"
        },
        {
          "name": "_crop_selling_price",
          "type": "uint256"
        },
        {
          "name": "_selling_date",
          "type": "string"
        },
        {
          "name": "_crop_description",
          "type": "string"
        }
      ],
      "name": "addFarmerDetails",
      "outputs": [],
      "payable": false,
      "stateMutability": "nonpayable",
      "type": "function",
      "signature": "0x5eddd96f"
    },
    {
      "constant": false,
      "inputs": [
        {
          "name": "_uint_args",
          "type": "uint256[3]"
        },
        {
          "name": "_string_args",
          "type": "string[6]"
        },
        {
          "name": "_raw_batch_no",
          "type": "uint256[]"
        }
      ],
      "name": "addPreProcessorDetails",
      "outputs": [],
      "payable": false,
      "stateMutability": "nonpayable",
      "type": "function",
      "signature": "0x0fb77673"
    },
    {
      "constant": false,
      "inputs": [
        {
          "name": "_uint_args",
          "type": "uint256[4]"
        },
        {
          "name": "_string_args",
          "type": "string[7]"
        },
        {
          "name": "_raw_batch_no",
          "type": "uint256[]"
        }
      ],
      "name": "addManufacturerDetails",
      "outputs": [],
      "payable": false,
      "stateMutability": "nonpayable",
      "type": "function",
      "signature": "0x88ea6fb9"
    },
    {
      "constant": false,
      "inputs": [
        {
          "name": "_product_id",
          "type": "uint256"
        }
      ],
      "name": "getRawProductDetails",
      "outputs": [],
      "payable": false,
      "stateMutability": "nonpayable",
      "type": "function",
      "signature": "0x5de576f5"
    },
    {
      "constant": false,
      "inputs": [],
      "name": "returnRawProductDetails",
      "outputs": [
        {
          "name": "",
          "type": "uint256[]"
        }
      ],
      "payable": false,
      "stateMutability": "nonpayable",
      "type": "function",
      "signature": "0x4a975cbf"
    }
  ],
  "bytecode": "0x608060405234801561001057600080fd5b506123c9806100206000396000f3fe6080604052600436106100c5576000357c0100000000000000000000000000000000000000000000000000000000900463ffffffff1680630fb77673146100ca578063476ca6f6146100f35780634a975cbf1461013a57806355cece13146101655780635de576f5146101a25780635eddd96f146101cb57806388c18b52146101f457806388ea6fb91461021d578063a2a5d2ab14610246578063b93ac27d1461028a578063c3740565146102c7578063c5fa72a4146102f0578063e97d5c0e14610335575b600080fd5b3480156100d657600080fd5b506100f160048036036100ec9190810190611bd1565b610372565b005b3480156100ff57600080fd5b5061011a60048036036101159190810190611ccf565b61059a565b6040516101319b9a999897969594939291906120e7565b60405180910390f35b34801561014657600080fd5b5061014f610a1c565b60405161015c9190611f52565b60405180910390f35b34801561017157600080fd5b5061018c60048036036101879190810190611ccf565b610a74565b6040516101999190611f74565b60405180910390f35b3480156101ae57600080fd5b506101c960048036036101c49190810190611ccf565b610a97565b005b3480156101d757600080fd5b506101f260048036036101ed9190810190611d4c565b610c10565b005b34801561020057600080fd5b5061021b60048036036102169190810190611cf8565b610d1a565b005b34801561022957600080fd5b50610244600480360361023f9190810190611c50565b610d45565b005b34801561025257600080fd5b5061026d60048036036102689190810190611ccf565b610fc8565b604051610281989796959493929190611f8f565b60405180910390f35b34801561029657600080fd5b506102b160048036036102ac9190810190611e76565b611308565b6040516102be9190611f74565b60405180910390f35b3480156102d357600080fd5b506102ee60048036036102e99190810190611cf8565b611338565b005b3480156102fc57600080fd5b5061031760048036036103129190810190611ccf565b611364565b60405161032c99989796959493929190612030565b60405180910390f35b34801561034157600080fd5b5061035c60048036036103579190810190611e76565b611742565b6040516103699190611f74565b60405180910390f35b6101406040519081016040528084600060038110151561038e57fe5b602002015181526020018460016003811015156103a757fe5b602002015181526020018460026003811015156103c057fe5b602002015181526020018360006006811015156103d957fe5b602002015181526020018360016006811015156103f257fe5b6020020151815260200183600260068110151561040b57fe5b6020020151815260200183600360068110151561042457fe5b6020020151815260200183600460068110151561043d57fe5b6020020151815260200183600560068110151561045657fe5b60200201518152602001828152506004600085600060038110151561047757fe5b6020020151815260200190815260200160002060008201518160000155602082015181600101556040820151816002015560608201518160030190805190602001906104c4929190611772565b5060808201518160040190805190602001906104e1929190611772565b5060a08201518160050190805190602001906104fe929190611772565b5060c082015181600601908051906020019061051b929190611772565b5060e0820151816007019080519060200190610538929190611772565b50610100820151816008019080519060200190610556929190611772565b506101208201518160090190805190602001906105749291906117f2565b5090505061059583600060038110151561058a57fe5b602002015182610d1a565b505050565b6005602052806000526040600020600091509050806000015490806001015490806002015490806003015490806004018054600181600116156101000203166002900480601f01602080910402602001604051908101604052809291908181526020018280546001816001161561010002031660029004801561065e5780601f106106335761010080835404028352916020019161065e565b820191906000526020600020905b81548152906001019060200180831161064157829003601f168201915b505050505090806005018054600181600116156101000203166002900480601f0160208091040260200160405190810160405280929190818152602001828054600181600116156101000203166002900480156106fc5780601f106106d1576101008083540402835291602001916106fc565b820191906000526020600020905b8154815290600101906020018083116106df57829003601f168201915b505050505090806006018054600181600116156101000203166002900480601f01602080910402602001604051908101604052809291908181526020018280546001816001161561010002031660029004801561079a5780601f1061076f5761010080835404028352916020019161079a565b820191906000526020600020905b81548152906001019060200180831161077d57829003601f168201915b505050505090806007018054600181600116156101000203166002900480601f0160208091040260200160405190810160405280929190818152602001828054600181600116156101000203166002900480156108385780601f1061080d57610100808354040283529160200191610838565b820191906000526020600020905b81548152906001019060200180831161081b57829003601f168201915b505050505090806008018054600181600116156101000203166002900480601f0160208091040260200160405190810160405280929190818152602001828054600181600116156101000203166002900480156108d65780601f106108ab576101008083540402835291602001916108d6565b820191906000526020600020905b8154815290600101906020018083116108b957829003601f168201915b505050505090806009018054600181600116156101000203166002900480601f0160208091040260200160405190810160405280929190818152602001828054600181600116156101000203166002900480156109745780601f1061094957610100808354040283529160200191610974565b820191906000526020600020905b81548152906001019060200180831161095757829003601f168201915b50505050509080600a018054600181600116156101000203166002900480601f016020809104026020016040519081016040528092919081815260200182805460018160011615610100020316600290048015610a125780601f106109e757610100808354040283529160200191610a12565b820191906000526020600020905b8154815290600101906020018083116109f557829003601f168201915b505050505090508b565b60606002805480602002602001604051908101604052809291908181526020018280548015610a6a57602002820191906000526020600020905b815481526020019060010190808311610a56575b5050505050905090565b600281815481101515610a8357fe5b906000526020600020016000915090505481565b606060056000838152602001908152602001600020600b01805480602002602001604051908101604052809291908181526020018280548015610af957602002820191906000526020600020905b815481526020019060010190808311610ae5575b50505050509050606060026000610b10919061183f565b60008090505b8251811015610c0a57600460008483815181101515610b3157fe5b906020019060200201518152602001908152602001600020600901805480602002602001604051908101604052809291908181526020018280548015610b9657602002820191906000526020600020905b815481526020019060010190808311610b82575b5050505050915060008090505b8251811015610bfc5760028382815181101515610bbc57fe5b9060200190602002015190806001815401808255809150509060018203906000526020600020016000909192909190915055508080600101915050610ba3565b508080600101915050610b16565b50505050565b6101006040519081016040528089815260200188815260200187815260200186815260200185815260200184815260200183815260200182815250600360008a8152602001908152602001600020600082015181600001556020820151816001019080519060200190610c84929190611772565b506040820151816002019080519060200190610ca1929190611772565b506060820151816003019080519060200190610cbe929190611772565b506080820151816004015560a0820151816005015560c0820151816006019080519060200190610cef929190611772565b5060e0820151816007019080519060200190610d0c929190611772565b509050505050505050505050565b806000808481526020019081526020016000209080519060200190610d40929190611860565b505050565b61018060405190810160405280846000600481101515610d6157fe5b60200201518152602001846001600481101515610d7a57fe5b60200201518152602001846002600481101515610d9357fe5b60200201518152602001846003600481101515610dac57fe5b60200201518152602001836000600781101515610dc557fe5b60200201518152602001836001600781101515610dde57fe5b60200201518152602001836002600781101515610df757fe5b60200201518152602001836003600781101515610e1057fe5b60200201518152602001836004600781101515610e2957fe5b60200201518152602001836005600781101515610e4257fe5b60200201518152602001836006600781101515610e5b57fe5b602002015181526020018281525060056000856000600481101515610e7c57fe5b60200201518152602001908152602001600020600082015181600001556020820151816001015560408201518160020155606082015181600301556080820151816004019080519060200190610ed3929190611772565b5060a0820151816005019080519060200190610ef0929190611772565b5060c0820151816006019080519060200190610f0d929190611772565b5060e0820151816007019080519060200190610f2a929190611772565b50610100820151816008019080519060200190610f48929190611772565b50610120820151816009019080519060200190610f66929190611772565b5061014082015181600a019080519060200190610f84929190611772565b5061016082015181600b019080519060200190610fa29291906117f2565b50905050610fc3836000600481101515610fb857fe5b602002015182611338565b505050565b6003602052806000526040600020600091509050806000015490806001018054600181600116156101000203166002900480601f01602080910402602001604051908101604052809291908181526020018280546001816001161561010002031660029004801561107a5780601f1061104f5761010080835404028352916020019161107a565b820191906000526020600020905b81548152906001019060200180831161105d57829003601f168201915b505050505090806002018054600181600116156101000203166002900480601f0160208091040260200160405190810160405280929190818152602001828054600181600116156101000203166002900480156111185780601f106110ed57610100808354040283529160200191611118565b820191906000526020600020905b8154815290600101906020018083116110fb57829003601f168201915b505050505090806003018054600181600116156101000203166002900480601f0160208091040260200160405190810160405280929190818152602001828054600181600116156101000203166002900480156111b65780601f1061118b576101008083540402835291602001916111b6565b820191906000526020600020905b81548152906001019060200180831161119957829003601f168201915b505050505090806004015490806005015490806006018054600181600116156101000203166002900480601f0160208091040260200160405190810160405280929190818152602001828054600181600116156101000203166002900480156112605780601f1061123557610100808354040283529160200191611260565b820191906000526020600020905b81548152906001019060200180831161124357829003601f168201915b505050505090806007018054600181600116156101000203166002900480601f0160208091040260200160405190810160405280929190818152602001828054600181600116156101000203166002900480156112fe5780601f106112d3576101008083540402835291602001916112fe565b820191906000526020600020905b8154815290600101906020018083116112e157829003601f168201915b5050505050905088565b60006020528160005260406000208181548110151561132357fe5b90600052602060002001600091509150505481565b8060016000848152602001908152602001600020908051906020019061135f929190611860565b505050565b6004602052806000526040600020600091509050806000015490806001015490806002015490806003018054600181600116156101000203166002900480601f0160208091040260200160405190810160405280929190818152602001828054600181600116156101000203166002900480156114225780601f106113f757610100808354040283529160200191611422565b820191906000526020600020905b81548152906001019060200180831161140557829003601f168201915b505050505090806004018054600181600116156101000203166002900480601f0160208091040260200160405190810160405280929190818152602001828054600181600116156101000203166002900480156114c05780601f10611495576101008083540402835291602001916114c0565b820191906000526020600020905b8154815290600101906020018083116114a357829003601f168201915b505050505090806005018054600181600116156101000203166002900480601f01602080910402602001604051908101604052809291908181526020018280546001816001161561010002031660029004801561155e5780601f106115335761010080835404028352916020019161155e565b820191906000526020600020905b81548152906001019060200180831161154157829003601f168201915b505050505090806006018054600181600116156101000203166002900480601f0160208091040260200160405190810160405280929190818152602001828054600181600116156101000203166002900480156115fc5780601f106115d1576101008083540402835291602001916115fc565b820191906000526020600020905b8154815290600101906020018083116115df57829003601f168201915b505050505090806007018054600181600116156101000203166002900480601f01602080910402602001604051908101604052809291908181526020018280546001816001161561010002031660029004801561169a5780601f1061166f5761010080835404028352916020019161169a565b820191906000526020600020905b81548152906001019060200180831161167d57829003601f168201915b505050505090806008018054600181600116156101000203166002900480601f0160208091040260200160405190810160405280929190818152602001828054600181600116156101000203166002900480156117385780601f1061170d57610100808354040283529160200191611738565b820191906000526020600020905b81548152906001019060200180831161171b57829003601f168201915b5050505050905089565b60016020528160005260406000208181548110151561175d57fe5b90600052602060002001600091509150505481565b828054600181600116156101000203166002900490600052602060002090601f016020900481019282601f106117b357805160ff19168380011785556117e1565b828001600101855582156117e1579182015b828111156117e05782518255916020019190600101906117c5565b5b5090506117ee91906118ad565b5090565b82805482825590600052602060002090810192821561182e579160200282015b8281111561182d578251825591602001919060010190611812565b5b50905061183b91906118ad565b5090565b508054600082559060005260206000209081019061185d91906118ad565b50565b82805482825590600052602060002090810192821561189c579160200282015b8281111561189b578251825591602001919060010190611880565b5b5090506118a991906118ad565b5090565b6118cf91905b808211156118cb5760008160009055506001016118b3565b5090565b90565b600082601f83011215156118e557600080fd5b60066118f86118f3826121f0565b6121c3565b9150818360005b8381101561192f57813586016119158882611b11565b8452602084019350602083019250506001810190506118ff565b5050505092915050565b600082601f830112151561194c57600080fd5b600761195f61195a82612212565b6121c3565b9150818360005b83811015611996578135860161197c8882611b11565b845260208401935060208301925050600181019050611966565b5050505092915050565b600082601f83011215156119b357600080fd5b60036119c66119c182612234565b6121c3565b915081838560208402820111156119dc57600080fd5b60005b83811015611a0c57816119f28882611bbd565b8452602084019350602083019250506001810190506119df565b5050505092915050565b600082601f8301121515611a2957600080fd5b6004611a3c611a3782612256565b6121c3565b91508183856020840282011115611a5257600080fd5b60005b83811015611a825781611a688882611bbd565b845260208401935060208301925050600181019050611a55565b5050505092915050565b600082601f8301121515611a9f57600080fd5b8135611ab2611aad82612278565b6121c3565b91508181835260208401935060208101905083856020840282011115611ad757600080fd5b60005b83811015611b075781611aed8882611bbd565b845260208401935060208301925050600181019050611ada565b5050505092915050565b600082601f8301121515611b2457600080fd5b8135611b37611b32826122a0565b6121c3565b91508082526020830160208301858383011115611b5357600080fd5b611b5e83828461233c565b50505092915050565b600082601f8301121515611b7a57600080fd5b8135611b8d611b88826122cc565b6121c3565b91508082526020830160208301858383011115611ba957600080fd5b611bb483828461233c565b50505092915050565b6000611bc98235612332565b905092915050565b600080600060a08486031215611be657600080fd5b6000611bf4868287016119a0565b935050606084013567ffffffffffffffff811115611c1157600080fd5b611c1d868287016118d2565b925050608084013567ffffffffffffffff811115611c3a57600080fd5b611c4686828701611a8c565b9150509250925092565b600080600060c08486031215611c6557600080fd5b6000611c7386828701611a16565b935050608084013567ffffffffffffffff811115611c9057600080fd5b611c9c86828701611939565b92505060a084013567ffffffffffffffff811115611cb957600080fd5b611cc586828701611a8c565b9150509250925092565b600060208284031215611ce157600080fd5b6000611cef84828501611bbd565b91505092915050565b60008060408385031215611d0b57600080fd5b6000611d1985828601611bbd565b925050602083013567ffffffffffffffff811115611d3657600080fd5b611d4285828601611a8c565b9150509250929050565b600080600080600080600080610100898b031215611d6957600080fd5b6000611d778b828c01611bbd565b985050602089013567ffffffffffffffff811115611d9457600080fd5b611da08b828c01611b67565b975050604089013567ffffffffffffffff811115611dbd57600080fd5b611dc98b828c01611b67565b965050606089013567ffffffffffffffff811115611de657600080fd5b611df28b828c01611b67565b9550506080611e038b828c01611bbd565b94505060a0611e148b828c01611bbd565b93505060c089013567ffffffffffffffff811115611e3157600080fd5b611e3d8b828c01611b67565b92505060e089013567ffffffffffffffff811115611e5a57600080fd5b611e668b828c01611b67565b9150509295985092959890939650565b60008060408385031215611e8957600080fd5b6000611e9785828601611bbd565b9250506020611ea885828601611bbd565b9150509250929050565b6000611ebd82612305565b808452602084019350611ecf836122f8565b60005b82811015611f0157611ee5868351611f43565b611eee8261231b565b9150602086019550600181019050611ed2565b50849250505092915050565b6000611f1882612310565b808452611f2c81602086016020860161234b565b611f358161237e565b602085010191505092915050565b611f4c81612328565b82525050565b60006020820190508181036000830152611f6c8184611eb2565b905092915050565b6000602082019050611f896000830184611f43565b92915050565b600061010082019050611fa5600083018b611f43565b8181036020830152611fb7818a611f0d565b90508181036040830152611fcb8189611f0d565b90508181036060830152611fdf8188611f0d565b9050611fee6080830187611f43565b611ffb60a0830186611f43565b81810360c083015261200d8185611f0d565b905081810360e08301526120218184611f0d565b90509998505050505050505050565b600061012082019050612046600083018c611f43565b612053602083018b611f43565b612060604083018a611f43565b81810360608301526120728189611f0d565b905081810360808301526120868188611f0d565b905081810360a083015261209a8187611f0d565b905081810360c08301526120ae8186611f0d565b905081810360e08301526120c28185611f0d565b90508181036101008301526120d78184611f0d565b90509a9950505050505050505050565b6000610160820190506120fd600083018e611f43565b61210a602083018d611f43565b612117604083018c611f43565b612124606083018b611f43565b8181036080830152612136818a611f0d565b905081810360a083015261214a8189611f0d565b905081810360c083015261215e8188611f0d565b905081810360e08301526121728187611f0d565b90508181036101008301526121878186611f0d565b905081810361012083015261219c8185611f0d565b90508181036101408301526121b18184611f0d565b90509c9b505050505050505050505050565b6000604051905081810181811067ffffffffffffffff821117156121e657600080fd5b8060405250919050565b600067ffffffffffffffff82111561220757600080fd5b602082029050919050565b600067ffffffffffffffff82111561222957600080fd5b602082029050919050565b600067ffffffffffffffff82111561224b57600080fd5b602082029050919050565b600067ffffffffffffffff82111561226d57600080fd5b602082029050919050565b600067ffffffffffffffff82111561228f57600080fd5b602082029050602081019050919050565b600067ffffffffffffffff8211156122b757600080fd5b601f19601f8301169050602081019050919050565b600067ffffffffffffffff8211156122e357600080fd5b601f19601f8301169050602081019050919050565b6000602082019050919050565b600081519050919050565b600081519050919050565b6000602082019050919050565b6000819050919050565b6000819050919050565b82818337600083830152505050565b60005b8381101561236957808201518184015260208101905061234e565b83811115612378576000848401525b50505050565b6000601f19601f830116905091905056fea265627a7a7230582091675fadbc32f5a49ea424487dc7a3a7b98ebc926299439808df3f65dd5f5d216c6578706572696d656e74616cf50037",
  "source": "pragma solidity <=0.6.0;\r\npragma experimental ABIEncoderV2;\r\n\r\ncontract Model {\r\n    \r\n    mapping(uint => uint[]) public preprocessorHash;\r\n    mapping(uint => uint[]) public manufacturerHash;\r\n\r\n    uint[] public raw_products;\r\n\r\n    function addPreProcessorHashDetails(uint _product_batch_no, uint[] memory _raw_batch_no_arr) public {\r\n        preprocessorHash[_product_batch_no] = _raw_batch_no_arr;\r\n    }\r\n\r\n    function addManufacturerHashDetails(uint _product_batch_no, uint[] memory _raw_batch_no_arr) public {\r\n        manufacturerHash[_product_batch_no] = _raw_batch_no_arr;\r\n    }\r\n\r\n    struct FarmerDetails {\r\n        uint batch_no;\r\n        string crop_name;\r\n        string buyer_name;\r\n        string location;\r\n        uint crop_quantity;\r\n        uint crop_selling_price;\r\n        string selling_date;\r\n        string crop_description;\r\n    }\r\n\r\n    mapping(uint => FarmerDetails) public farmerDetailsMap;\r\n\r\n    function addFarmerDetails(\r\n        uint _batch_no,\r\n        string memory _crop_name,\r\n        string memory _buyer_name,\r\n        string memory _location,\r\n        uint _crop_quantity,\r\n        uint _crop_selling_price,\r\n        string memory _selling_date,\r\n        string memory _crop_description\r\n    ) public {\r\n        farmerDetailsMap[_batch_no] = FarmerDetails(\r\n                                            _batch_no,\r\n                                            _crop_name,\r\n                                            _buyer_name,\r\n                                            _location,\r\n                                            _crop_quantity,\r\n                                            _crop_selling_price,\r\n                                            _selling_date,\r\n                                            _crop_description);\r\n    }\r\n\r\n    struct PreProcessorDetails {\r\n        uint batch_no;\r\n        uint processed_product_quantity;\r\n        uint processed_product_selling_price;\r\n        string processed_product_name;\r\n        string processed_product_buyer_name;\r\n        string processed_product_location;\r\n        string processed_product_preocessing_date;\r\n        string processed_product_selling_date;\r\n        string processed_product_description;\r\n        uint[] raw_batch_no;\r\n    }\r\n\r\n    mapping(uint => PreProcessorDetails) public preProcessorDetailsMap;\r\n\r\n    function addPreProcessorDetails(\r\n        uint[3] memory _uint_args,\r\n        string[6] memory _string_args,\r\n        uint[] memory _raw_batch_no\r\n    ) public {\r\n        preProcessorDetailsMap[_uint_args[0]] = PreProcessorDetails(\r\n                                                    _uint_args[0],\r\n                                                    _uint_args[1],\r\n                                                    _uint_args[2],\r\n                                                    _string_args[0],\r\n                                                    _string_args[1],\r\n                                                    _string_args[2],\r\n                                                    _string_args[3],\r\n                                                    _string_args[4],\r\n                                                    _string_args[5],\r\n                                                    _raw_batch_no);\r\n        \r\n        addPreProcessorHashDetails(_uint_args[0], _raw_batch_no);\r\n    }\r\n\r\n    struct ManufacturerDetails {\r\n        uint batch_no;                              //0\r\n        uint manufactured_product_quantity;         //1            \r\n        uint manufactured_product_mrp;              //2        \r\n        uint manufactured_product_selling_price;    //3                    \r\n        string manufactured_product_name;           //4            \r\n        string manufactured_product_buyer_name;     //5                \r\n        string manufactured_product_loaction;       //6                \r\n        string manufactured_product_selling_date;   //7                    \r\n        string manufactured_product_mfg_date;       //8                \r\n        string manufactured_product_exp_date;       //9                \r\n        string manufactured_product_description;    //10                    \r\n        uint[] raw_batch_no;                        //11\r\n    }\r\n\r\n    mapping(uint => ManufacturerDetails) public manufacturerDetailsMap;\r\n\r\n    function addManufacturerDetails(\r\n        uint[4] memory _uint_args,\r\n        string[7] memory _string_args,\r\n        uint[] memory _raw_batch_no\r\n    ) public {\r\n        manufacturerDetailsMap[_uint_args[0]] = ManufacturerDetails(\r\n                                                    _uint_args[0],\r\n                                                    _uint_args[1],\r\n                                                    _uint_args[2],\r\n                                                    _uint_args[3],\r\n                                                    _string_args[0],\r\n                                                    _string_args[1],\r\n                                                    _string_args[2],\r\n                                                    _string_args[3],\r\n                                                    _string_args[4],\r\n                                                    _string_args[5],\r\n                                                    _string_args[6],\r\n                                                    _raw_batch_no);\r\n\r\n        addManufacturerHashDetails(_uint_args[0], _raw_batch_no);\r\n    }\r\n\r\n    function getRawProductDetails(uint _product_id) public {\r\n        uint[] memory processed_raw = manufacturerDetailsMap[_product_id].raw_batch_no;\r\n        uint[] memory temp;\r\n        delete raw_products;\r\n        for(uint i = 0; i < processed_raw.length; i++) {\r\n            temp = preProcessorDetailsMap[processed_raw[i]].raw_batch_no;\r\n            for(uint j = 0; j < temp.length; j++) {\r\n                raw_products.push(temp[j]);\r\n            }\r\n        }\r\n    }\r\n\r\n    function returnRawProductDetails() public returns(uint[] memory) {\r\n        return raw_products;\r\n    }\r\n}",
  "sourcePath": "C:/Users/AMITESH/Documents/Study/SIH/Final/Final/contracts/Model.sol",
  "compiler": {
    "name": "solc",
    "version": "0.5.0+commit.1d4f565a.Emscripten.clang"
  },
  "schemaVersion": "3.0.1",
  "updatedAt": "2022-08-26T10:49:24.342Z",
  "devdoc": {
    "methods": {}
  },
  "userdoc": {
    "methods": {}
  }
}