{
  "contractName": "Model",
  "abi": [
    {
      "constant": true,
      "inputs": [
        {
          "name": "",
          "type": "uint256"
        }
      ],
      "name": "manufacturerDetailsMap",
      "outputs": [
        {
          "name": "batch_no",
          "type": "uint256"
        },
        {
          "name": "manufactured_product_quantity",
          "type": "uint256"
        },
        {
          "name": "manufactured_product_mrp",
          "type": "uint256"
        },
        {
          "name": "manufactured_product_selling_price",
          "type": "uint256"
        },
        {
          "name": "manufactured_product_name",
          "type": "string"
        },
        {
          "name": "manufactured_product_buyer_name",
          "type": "string"
        },
        {
          "name": "manufactured_product_loaction",
          "type": "string"
        },
        {
          "name": "manufactured_product_selling_date",
          "type": "string"
        },
        {
          "name": "manufactured_product_mfg_date",
          "type": "string"
        },
        {
          "name": "manufactured_product_exp_date",
          "type": "string"
        },
        {
          "name": "manufactured_product_description",
          "type": "string"
        }
      ],
      "payable": false,
      "stateMutability": "view",
      "type": "function",
      "signature": "0x476ca6f6"
    },
    {
      "constant": true,
      "inputs": [
        {
          "name": "",
          "type": "uint256"
        }
      ],
      "name": "raw_products",
      "outputs": [
        {
          "name": "",
          "type": "uint256"
        }
      ],
      "payable": false,
      "stateMutability": "view",
      "type": "function",
      "signature": "0x55cece13"
    },
    {
      "constant": true,
      "inputs": [
        {
          "name": "",
          "type": "uint256"
        }
      ],
      "name": "farmerDetailsMap",
      "outputs": [
        {
          "name": "batch_no",
          "type": "uint256"
        },
        {
          "name": "crop_name",
          "type": "string"
        },
        {
          "name": "buyer_name",
          "type": "string"
        },
        {
          "name": "location",
          "type": "string"
        },
        {
          "name": "crop_quantity",
          "type": "uint256"
        },
        {
          "name": "crop_selling_price",
          "type": "uint256"
        },
        {
          "name": "selling_date",
          "type": "string"
        },
        {
          "name": "crop_description",
          "type": "string"
        }
      ],
      "payable": false,
      "stateMutability": "view",
      "type": "function",
      "signature": "0xa2a5d2ab"
    },
    {
      "constant": true,
      "inputs": [
        {
          "name": "",
          "type": "uint256"
        },
        {
          "name": "",
          "type": "uint256"
        }
      ],
      "name": "preprocessorHash",
      "outputs": [
        {
          "name": "",
          "type": "uint256"
        }
      ],
      "payable": false,
      "stateMutability": "view",
      "type": "function",
      "signature": "0xb93ac27d"
    },
    {
      "constant": true,
      "inputs": [
        {
          "name": "",
          "type": "uint256"
        }
      ],
      "name": "preProcessorDetailsMap",
      "outputs": [
        {
          "name": "batch_no",
          "type": "uint256"
        },
        {
          "name": "processed_product_quantity",
          "type": "uint256"
        },
        {
          "name": "processed_product_selling_price",
          "type": "uint256"
        },
        {
          "name": "processed_product_name",
          "type": "string"
        },
        {
          "name": "processed_product_buyer_name",
          "type": "string"
        },
        {
          "name": "processed_product_location",
          "type": "string"
        },
        {
          "name": "processed_product_preocessing_date",
          "type": "string"
        },
        {
          "name": "processed_product_selling_date",
          "type": "string"
        },
        {
          "name": "processed_product_description",
          "type": "string"
        }
      ],
      "payable": false,
      "stateMutability": "view",
      "type": "function",
      "signature": "0xc5fa72a4"
    },
    {
      "constant": true,
      "inputs": [
        {
          "name": "",
          "type": "uint256"
        },
        {
          "name": "",
          "type": "uint256"
        }
      ],
      "name": "manufacturerHash",
      "outputs": [
        {
          "name": "",
          "type": "uint256"
        }
      ],
      "payable": false,
      "stateMutability": "view",
      "type": "function",
      "signature": "0xe97d5c0e"
    },
    {
      "constant": false,
      "inputs": [
        {
          "name": "_product_batch_no",
          "type": "uint256"
        },
        {
          "name": "_raw_batch_no_arr",
          "type": "uint256[]"
        }
      ],
      "name": "addPreProcessorHashDetails",
      "outputs": [],
      "payable": false,
      "stateMutability": "nonpayable",
      "type": "function",
      "signature": "0x88c18b52"
    },
    {
      "constant": false,
      "inputs": [
        {
          "name": "_product_batch_no",
          "type": "uint256"
        },
        {
          "name": "_raw_batch_no_arr",
          "type": "uint256[]"
        }
      ],
      "name": "addManufacturerHashDetails",
      "outputs": [],
      "payable": false,
      "stateMutability": "nonpayable",
      "type": "function",
      "signature": "0xc3740565"
    },
    {
      "constant": false,
      "inputs": [
        {
          "name": "_batch_no",
          "type": "uint256"
        },
        {
          "name": "_crop_name",
          "type": "string"
        },
        {
          "name": "_buyer_name",
          "type": "string"
        },
        {
          "name": "_location",
          "type": "string"
        },
        {
          "name": "_crop_quantity",
          "type": "uint256"
        },
        {
          "name": "_crop_selling_price",
          "type": "uint256"
        },
        {
          "name": "_selling_date",
          "type": "string"
        },
        {
          "name": "_crop_description",
          "type": "string"
        }
      ],
      "name": "addFarmerDetails",
      "outputs": [],
      "payable": false,
      "stateMutability": "nonpayable",
      "type": "function",
      "signature": "0x5eddd96f"
    },
    {
      "constant": false,
      "inputs": [
        {
          "name": "_uint_args",
          "type": "uint256[3]"
        },
        {
          "name": "_string_args",
          "type": "string[6]"
        },
        {
          "name": "_raw_batch_no",
          "type": "uint256[]"
        },
        {
          "name": "_preprocessed_processes",
          "type": "string[]"
        }
      ],
      "name": "addPreProcessorDetails",
      "outputs": [],
      "payable": false,
      "stateMutability": "nonpayable",
      "type": "function",
      "signature": "0xb5905ab1"
    },
    {
      "constant": false,
      "inputs": [
        {
          "name": "_uint_args",
          "type": "uint256[4]"
        },
        {
          "name": "_string_args",
          "type": "string[7]"
        },
        {
          "name": "_raw_batch_no",
          "type": "uint256[]"
        },
        {
          "name": "_manufactured_processes",
          "type": "string[]"
        }
      ],
      "name": "addManufacturerDetails",
      "outputs": [],
      "payable": false,
      "stateMutability": "nonpayable",
      "type": "function",
      "signature": "0xe6767053"
    },
    {
      "constant": false,
      "inputs": [
        {
          "name": "_product_id",
          "type": "uint256"
        }
      ],
      "name": "getRawProductDetails",
      "outputs": [],
      "payable": false,
      "stateMutability": "nonpayable",
      "type": "function",
      "signature": "0x5de576f5"
    },
    {
      "constant": false,
      "inputs": [],
      "name": "returnRawProductDetails",
      "outputs": [
        {
          "name": "",
          "type": "uint256[]"
        }
      ],
      "payable": false,
      "stateMutability": "nonpayable",
      "type": "function",
      "signature": "0x4a975cbf"
    }
  ],
  "bytecode": "0x608060405234801561001057600080fd5b506125dd806100206000396000f3fe6080604052600436106100c5576000357c0100000000000000000000000000000000000000000000000000000000900463ffffffff168063476ca6f6146100ca5780634a975cbf1461011157806355cece131461013c5780635de576f5146101795780635eddd96f146101a257806388c18b52146101cb578063a2a5d2ab146101f4578063b5905ab114610238578063b93ac27d14610261578063c37405651461029e578063c5fa72a4146102c7578063e67670531461030c578063e97d5c0e14610335575b600080fd5b3480156100d657600080fd5b506100f160048036036100ec9190810190611ebb565b610372565b6040516101089b9a999897969594939291906122d3565b60405180910390f35b34801561011d57600080fd5b506101266107f4565b604051610133919061213e565b60405180910390f35b34801561014857600080fd5b50610163600480360361015e9190810190611ebb565b61084c565b6040516101709190612160565b60405180910390f35b34801561018557600080fd5b506101a0600480360361019b9190810190611ebb565b61086f565b005b3480156101ae57600080fd5b506101c960048036036101c49190810190611f38565b6109e8565b005b3480156101d757600080fd5b506101f260048036036101ed9190810190611ee4565b610af2565b005b34801561020057600080fd5b5061021b60048036036102169190810190611ebb565b610b1d565b60405161022f98979695949392919061217b565b60405180910390f35b34801561024457600080fd5b5061025f600480360361025a9190810190611d65565b610e5d565b005b34801561026d57600080fd5b5061028860048036036102839190810190612062565b6110aa565b6040516102959190612160565b60405180910390f35b3480156102aa57600080fd5b506102c560048036036102c09190810190611ee4565b6110da565b005b3480156102d357600080fd5b506102ee60048036036102e99190810190611ebb565b611106565b6040516103039998979695949392919061221c565b60405180910390f35b34801561031857600080fd5b50610333600480360361032e9190810190611e10565b6114e4565b005b34801561034157600080fd5b5061035c60048036036103579190810190612062565b61178c565b6040516103699190612160565b60405180910390f35b6005602052806000526040600020600091509050806000015490806001015490806002015490806003015490806004018054600181600116156101000203166002900480601f0160208091040260200160405190810160405280929190818152602001828054600181600116156101000203166002900480156104365780601f1061040b57610100808354040283529160200191610436565b820191906000526020600020905b81548152906001019060200180831161041957829003601f168201915b505050505090806005018054600181600116156101000203166002900480601f0160208091040260200160405190810160405280929190818152602001828054600181600116156101000203166002900480156104d45780601f106104a9576101008083540402835291602001916104d4565b820191906000526020600020905b8154815290600101906020018083116104b757829003601f168201915b505050505090806006018054600181600116156101000203166002900480601f0160208091040260200160405190810160405280929190818152602001828054600181600116156101000203166002900480156105725780601f1061054757610100808354040283529160200191610572565b820191906000526020600020905b81548152906001019060200180831161055557829003601f168201915b505050505090806007018054600181600116156101000203166002900480601f0160208091040260200160405190810160405280929190818152602001828054600181600116156101000203166002900480156106105780601f106105e557610100808354040283529160200191610610565b820191906000526020600020905b8154815290600101906020018083116105f357829003601f168201915b505050505090806008018054600181600116156101000203166002900480601f0160208091040260200160405190810160405280929190818152602001828054600181600116156101000203166002900480156106ae5780601f10610683576101008083540402835291602001916106ae565b820191906000526020600020905b81548152906001019060200180831161069157829003601f168201915b505050505090806009018054600181600116156101000203166002900480601f01602080910402602001604051908101604052809291908181526020018280546001816001161561010002031660029004801561074c5780601f106107215761010080835404028352916020019161074c565b820191906000526020600020905b81548152906001019060200180831161072f57829003601f168201915b50505050509080600a018054600181600116156101000203166002900480601f0160208091040260200160405190810160405280929190818152602001828054600181600116156101000203166002900480156107ea5780601f106107bf576101008083540402835291602001916107ea565b820191906000526020600020905b8154815290600101906020018083116107cd57829003601f168201915b505050505090508b565b6060600280548060200260200160405190810160405280929190818152602001828054801561084257602002820191906000526020600020905b81548152602001906001019080831161082e575b5050505050905090565b60028181548110151561085b57fe5b906000526020600020016000915090505481565b606060056000838152602001908152602001600020600b018054806020026020016040519081016040528092919081815260200182805480156108d157602002820191906000526020600020905b8154815260200190600101908083116108bd575b505050505090506060600260006108e891906117bc565b60008090505b82518110156109e25760046000848381518110151561090957fe5b90602001906020020151815260200190815260200160002060090180548060200260200160405190810160405280929190818152602001828054801561096e57602002820191906000526020600020905b81548152602001906001019080831161095a575b5050505050915060008090505b82518110156109d4576002838281518110151561099457fe5b906020019060200201519080600181540180825580915050906001820390600052602060002001600090919290919091505550808060010191505061097b565b5080806001019150506108ee565b50505050565b6101006040519081016040528089815260200188815260200187815260200186815260200185815260200184815260200183815260200182815250600360008a8152602001908152602001600020600082015181600001556020820151816001019080519060200190610a5c9291906117dd565b506040820151816002019080519060200190610a799291906117dd565b506060820151816003019080519060200190610a969291906117dd565b506080820151816004015560a0820151816005015560c0820151816006019080519060200190610ac79291906117dd565b5060e0820151816007019080519060200190610ae49291906117dd565b509050505050505050505050565b806000808481526020019081526020016000209080519060200190610b1892919061185d565b505050565b6003602052806000526040600020600091509050806000015490806001018054600181600116156101000203166002900480601f016020809104026020016040519081016040528092919081815260200182805460018160011615610100020316600290048015610bcf5780601f10610ba457610100808354040283529160200191610bcf565b820191906000526020600020905b815481529060010190602001808311610bb257829003601f168201915b505050505090806002018054600181600116156101000203166002900480601f016020809104026020016040519081016040528092919081815260200182805460018160011615610100020316600290048015610c6d5780601f10610c4257610100808354040283529160200191610c6d565b820191906000526020600020905b815481529060010190602001808311610c5057829003601f168201915b505050505090806003018054600181600116156101000203166002900480601f016020809104026020016040519081016040528092919081815260200182805460018160011615610100020316600290048015610d0b5780601f10610ce057610100808354040283529160200191610d0b565b820191906000526020600020905b815481529060010190602001808311610cee57829003601f168201915b505050505090806004015490806005015490806006018054600181600116156101000203166002900480601f016020809104026020016040519081016040528092919081815260200182805460018160011615610100020316600290048015610db55780601f10610d8a57610100808354040283529160200191610db5565b820191906000526020600020905b815481529060010190602001808311610d9857829003601f168201915b505050505090806007018054600181600116156101000203166002900480601f016020809104026020016040519081016040528092919081815260200182805460018160011615610100020316600290048015610e535780601f10610e2857610100808354040283529160200191610e53565b820191906000526020600020905b815481529060010190602001808311610e3657829003601f168201915b5050505050905088565b61016060405190810160405280856000600381101515610e7957fe5b60200201518152602001856001600381101515610e9257fe5b60200201518152602001856002600381101515610eab57fe5b60200201518152602001846000600681101515610ec457fe5b60200201518152602001846001600681101515610edd57fe5b60200201518152602001846002600681101515610ef657fe5b60200201518152602001846003600681101515610f0f57fe5b60200201518152602001846004600681101515610f2857fe5b60200201518152602001846005600681101515610f4157fe5b602002015181526020018381526020018281525060046000866000600381101515610f6857fe5b602002015181526020019081526020016000206000820151816000015560208201518160010155604082015181600201556060820151816003019080519060200190610fb59291906117dd565b506080820151816004019080519060200190610fd29291906117dd565b5060a0820151816005019080519060200190610fef9291906117dd565b5060c082015181600601908051906020019061100c9291906117dd565b5060e08201518160070190805190602001906110299291906117dd565b506101008201518160080190805190602001906110479291906117dd565b506101208201518160090190805190602001906110659291906118aa565b5061014082015181600a0190805190602001906110839291906118f7565b509050506110a484600060038110151561109957fe5b602002015183610af2565b50505050565b6000602052816000526040600020818154811015156110c557fe5b90600052602060002001600091509150505481565b8060016000848152602001908152602001600020908051906020019061110192919061185d565b505050565b6004602052806000526040600020600091509050806000015490806001015490806002015490806003018054600181600116156101000203166002900480601f0160208091040260200160405190810160405280929190818152602001828054600181600116156101000203166002900480156111c45780601f10611199576101008083540402835291602001916111c4565b820191906000526020600020905b8154815290600101906020018083116111a757829003601f168201915b505050505090806004018054600181600116156101000203166002900480601f0160208091040260200160405190810160405280929190818152602001828054600181600116156101000203166002900480156112625780601f1061123757610100808354040283529160200191611262565b820191906000526020600020905b81548152906001019060200180831161124557829003601f168201915b505050505090806005018054600181600116156101000203166002900480601f0160208091040260200160405190810160405280929190818152602001828054600181600116156101000203166002900480156113005780601f106112d557610100808354040283529160200191611300565b820191906000526020600020905b8154815290600101906020018083116112e357829003601f168201915b505050505090806006018054600181600116156101000203166002900480601f01602080910402602001604051908101604052809291908181526020018280546001816001161561010002031660029004801561139e5780601f106113735761010080835404028352916020019161139e565b820191906000526020600020905b81548152906001019060200180831161138157829003601f168201915b505050505090806007018054600181600116156101000203166002900480601f01602080910402602001604051908101604052809291908181526020018280546001816001161561010002031660029004801561143c5780601f106114115761010080835404028352916020019161143c565b820191906000526020600020905b81548152906001019060200180831161141f57829003601f168201915b505050505090806008018054600181600116156101000203166002900480601f0160208091040260200160405190810160405280929190818152602001828054600181600116156101000203166002900480156114da5780601f106114af576101008083540402835291602001916114da565b820191906000526020600020905b8154815290600101906020018083116114bd57829003601f168201915b5050505050905089565b6101a06040519081016040528085600060048110151561150057fe5b6020020151815260200185600160048110151561151957fe5b6020020151815260200185600260048110151561153257fe5b6020020151815260200185600360048110151561154b57fe5b6020020151815260200184600060078110151561156457fe5b6020020151815260200184600160078110151561157d57fe5b6020020151815260200184600260078110151561159657fe5b602002015181526020018460036007811015156115af57fe5b602002015181526020018460046007811015156115c857fe5b602002015181526020018460056007811015156115e157fe5b602002015181526020018460066007811015156115fa57fe5b60200201518152602001838152602001828152506005600086600060048110151561162157fe5b602002015181526020019081526020016000206000820151816000015560208201518160010155604082015181600201556060820151816003015560808201518160040190805190602001906116789291906117dd565b5060a08201518160050190805190602001906116959291906117dd565b5060c08201518160060190805190602001906116b29291906117dd565b5060e08201518160070190805190602001906116cf9291906117dd565b506101008201518160080190805190602001906116ed9291906117dd565b5061012082015181600901908051906020019061170b9291906117dd565b5061014082015181600a0190805190602001906117299291906117dd565b5061016082015181600b0190805190602001906117479291906118aa565b5061018082015181600c0190805190602001906117659291906118f7565b5090505061178684600060048110151561177b57fe5b6020020151836110da565b50505050565b6001602052816000526040600020818154811015156117a757fe5b90600052602060002001600091509150505481565b50805460008255906000526020600020908101906117da9190611957565b50565b828054600181600116156101000203166002900490600052602060002090601f016020900481019282601f1061181e57805160ff191683800117855561184c565b8280016001018555821561184c579182015b8281111561184b578251825591602001919060010190611830565b5b5090506118599190611957565b5090565b828054828255906000526020600020908101928215611899579160200282015b8281111561189857825182559160200191906001019061187d565b5b5090506118a69190611957565b5090565b8280548282559060005260206000209081019282156118e6579160200282015b828111156118e55782518255916020019190600101906118ca565b5b5090506118f39190611957565b5090565b828054828255906000526020600020908101928215611946579160200282015b828111156119455782518290805190602001906119359291906117dd565b5091602001919060010190611917565b5b509050611953919061197c565b5090565b61197991905b8082111561197557600081600090555060010161195d565b5090565b90565b6119a591905b808211156119a1576000818161199891906119a8565b50600101611982565b5090565b90565b50805460018160011615610100020316600290046000825580601f106119ce57506119ed565b601f0160209004906000526020600020908101906119ec9190611957565b5b50565b600082601f8301121515611a0357600080fd5b6006611a16611a11826123dc565b6123af565b9150818360005b83811015611a4d5781358601611a338882611ca5565b845260208401935060208301925050600181019050611a1d565b5050505092915050565b600082601f8301121515611a6a57600080fd5b6007611a7d611a78826123fe565b6123af565b9150818360005b83811015611ab45781358601611a9a8882611ca5565b845260208401935060208301925050600181019050611a84565b5050505092915050565b600082601f8301121515611ad157600080fd5b8135611ae4611adf82612420565b6123af565b9150818183526020840193506020810190508360005b83811015611b2a5781358601611b108882611ca5565b845260208401935060208301925050600181019050611afa565b5050505092915050565b600082601f8301121515611b4757600080fd5b6003611b5a611b5582612448565b6123af565b91508183856020840282011115611b7057600080fd5b60005b83811015611ba05781611b868882611d51565b845260208401935060208301925050600181019050611b73565b5050505092915050565b600082601f8301121515611bbd57600080fd5b6004611bd0611bcb8261246a565b6123af565b91508183856020840282011115611be657600080fd5b60005b83811015611c165781611bfc8882611d51565b845260208401935060208301925050600181019050611be9565b5050505092915050565b600082601f8301121515611c3357600080fd5b8135611c46611c418261248c565b6123af565b91508181835260208401935060208101905083856020840282011115611c6b57600080fd5b60005b83811015611c9b5781611c818882611d51565b845260208401935060208301925050600181019050611c6e565b5050505092915050565b600082601f8301121515611cb857600080fd5b8135611ccb611cc6826124b4565b6123af565b91508082526020830160208301858383011115611ce757600080fd5b611cf2838284612550565b50505092915050565b600082601f8301121515611d0e57600080fd5b8135611d21611d1c826124e0565b6123af565b91508082526020830160208301858383011115611d3d57600080fd5b611d48838284612550565b50505092915050565b6000611d5d8235612546565b905092915050565b60008060008060c08587031215611d7b57600080fd5b6000611d8987828801611b34565b945050606085013567ffffffffffffffff811115611da657600080fd5b611db2878288016119f0565b935050608085013567ffffffffffffffff811115611dcf57600080fd5b611ddb87828801611c20565b92505060a085013567ffffffffffffffff811115611df857600080fd5b611e0487828801611abe565b91505092959194509250565b60008060008060e08587031215611e2657600080fd5b6000611e3487828801611baa565b945050608085013567ffffffffffffffff811115611e5157600080fd5b611e5d87828801611a57565b93505060a085013567ffffffffffffffff811115611e7a57600080fd5b611e8687828801611c20565b92505060c085013567ffffffffffffffff811115611ea357600080fd5b611eaf87828801611abe565b91505092959194509250565b600060208284031215611ecd57600080fd5b6000611edb84828501611d51565b91505092915050565b60008060408385031215611ef757600080fd5b6000611f0585828601611d51565b925050602083013567ffffffffffffffff811115611f2257600080fd5b611f2e85828601611c20565b9150509250929050565b600080600080600080600080610100898b031215611f5557600080fd5b6000611f638b828c01611d51565b985050602089013567ffffffffffffffff811115611f8057600080fd5b611f8c8b828c01611cfb565b975050604089013567ffffffffffffffff811115611fa957600080fd5b611fb58b828c01611cfb565b965050606089013567ffffffffffffffff811115611fd257600080fd5b611fde8b828c01611cfb565b9550506080611fef8b828c01611d51565b94505060a06120008b828c01611d51565b93505060c089013567ffffffffffffffff81111561201d57600080fd5b6120298b828c01611cfb565b92505060e089013567ffffffffffffffff81111561204657600080fd5b6120528b828c01611cfb565b9150509295985092959890939650565b6000806040838503121561207557600080fd5b600061208385828601611d51565b925050602061209485828601611d51565b9150509250929050565b60006120a982612519565b8084526020840193506120bb8361250c565b60005b828110156120ed576120d186835161212f565b6120da8261252f565b91506020860195506001810190506120be565b50849250505092915050565b600061210482612524565b80845261211881602086016020860161255f565b61212181612592565b602085010191505092915050565b6121388161253c565b82525050565b60006020820190508181036000830152612158818461209e565b905092915050565b6000602082019050612175600083018461212f565b92915050565b600061010082019050612191600083018b61212f565b81810360208301526121a3818a6120f9565b905081810360408301526121b781896120f9565b905081810360608301526121cb81886120f9565b90506121da608083018761212f565b6121e760a083018661212f565b81810360c08301526121f981856120f9565b905081810360e083015261220d81846120f9565b90509998505050505050505050565b600061012082019050612232600083018c61212f565b61223f602083018b61212f565b61224c604083018a61212f565b818103606083015261225e81896120f9565b9050818103608083015261227281886120f9565b905081810360a083015261228681876120f9565b905081810360c083015261229a81866120f9565b905081810360e08301526122ae81856120f9565b90508181036101008301526122c381846120f9565b90509a9950505050505050505050565b6000610160820190506122e9600083018e61212f565b6122f6602083018d61212f565b612303604083018c61212f565b612310606083018b61212f565b8181036080830152612322818a6120f9565b905081810360a083015261233681896120f9565b905081810360c083015261234a81886120f9565b905081810360e083015261235e81876120f9565b905081810361010083015261237381866120f9565b905081810361012083015261238881856120f9565b905081810361014083015261239d81846120f9565b90509c9b505050505050505050505050565b6000604051905081810181811067ffffffffffffffff821117156123d257600080fd5b8060405250919050565b600067ffffffffffffffff8211156123f357600080fd5b602082029050919050565b600067ffffffffffffffff82111561241557600080fd5b602082029050919050565b600067ffffffffffffffff82111561243757600080fd5b602082029050602081019050919050565b600067ffffffffffffffff82111561245f57600080fd5b602082029050919050565b600067ffffffffffffffff82111561248157600080fd5b602082029050919050565b600067ffffffffffffffff8211156124a357600080fd5b602082029050602081019050919050565b600067ffffffffffffffff8211156124cb57600080fd5b601f19601f8301169050602081019050919050565b600067ffffffffffffffff8211156124f757600080fd5b601f19601f8301169050602081019050919050565b6000602082019050919050565b600081519050919050565b600081519050919050565b6000602082019050919050565b6000819050919050565b6000819050919050565b82818337600083830152505050565b60005b8381101561257d578082015181840152602081019050612562565b8381111561258c576000848401525b50505050565b6000601f19601f830116905091905056fea265627a7a72305820a2228209b49936ae96fc53f91b55d7d8540fdc815c82edc845d87d9387c003dc6c6578706572696d656e74616cf50037",
  "source": "pragma solidity <=0.6.0;\r\npragma experimental ABIEncoderV2;\r\n\r\ncontract Model {\r\n    \r\n    mapping(uint => uint[]) public preprocessorHash;\r\n    mapping(uint => uint[]) public manufacturerHash;\r\n\r\n    uint[] public raw_products;\r\n\r\n    function addPreProcessorHashDetails(uint _product_batch_no, uint[] memory _raw_batch_no_arr) public {\r\n        preprocessorHash[_product_batch_no] = _raw_batch_no_arr;\r\n    }\r\n\r\n    function addManufacturerHashDetails(uint _product_batch_no, uint[] memory _raw_batch_no_arr) public {\r\n        manufacturerHash[_product_batch_no] = _raw_batch_no_arr;\r\n    }\r\n\r\n    struct FarmerDetails {\r\n        uint batch_no;\r\n        string crop_name;\r\n        string buyer_name;\r\n        string location;\r\n        uint crop_quantity;\r\n        uint crop_selling_price;\r\n        string selling_date;\r\n        string crop_description;\r\n    }\r\n\r\n    mapping(uint => FarmerDetails) public farmerDetailsMap;\r\n\r\n    function addFarmerDetails(\r\n        uint _batch_no,\r\n        string memory _crop_name,\r\n        string memory _buyer_name,\r\n        string memory _location,\r\n        uint _crop_quantity,\r\n        uint _crop_selling_price,\r\n        string memory _selling_date,\r\n        string memory _crop_description\r\n    ) public {\r\n        farmerDetailsMap[_batch_no] = FarmerDetails(\r\n                                            _batch_no,\r\n                                            _crop_name,\r\n                                            _buyer_name,\r\n                                            _location,\r\n                                            _crop_quantity,\r\n                                            _crop_selling_price,\r\n                                            _selling_date,\r\n                                            _crop_description);\r\n    }\r\n\r\n    struct PreProcessorDetails {\r\n        uint batch_no;\r\n        uint processed_product_quantity;\r\n        uint processed_product_selling_price;\r\n        string processed_product_name;\r\n        string processed_product_buyer_name;\r\n        string processed_product_location;\r\n        string processed_product_preocessing_date;\r\n        string processed_product_selling_date;\r\n        string processed_product_description;\r\n        uint[] raw_batch_no;\r\n        string[] preprocessed_processes;\r\n    }\r\n\r\n    mapping(uint => PreProcessorDetails) public preProcessorDetailsMap;\r\n\r\n    function addPreProcessorDetails(\r\n        uint[3] memory _uint_args,\r\n        string[6] memory _string_args,\r\n        uint[] memory _raw_batch_no,\r\n        string[] memory _preprocessed_processes\r\n    ) public {\r\n        preProcessorDetailsMap[_uint_args[0]] = PreProcessorDetails(\r\n                                                    _uint_args[0],\r\n                                                    _uint_args[1],\r\n                                                    _uint_args[2],\r\n                                                    _string_args[0],\r\n                                                    _string_args[1],\r\n                                                    _string_args[2],\r\n                                                    _string_args[3],\r\n                                                    _string_args[4],\r\n                                                    _string_args[5],\r\n                                                    _raw_batch_no,\r\n                                                    _preprocessed_processes);\r\n        \r\n        addPreProcessorHashDetails(_uint_args[0], _raw_batch_no);\r\n    }\r\n\r\n    struct ManufacturerDetails {\r\n        uint batch_no;                              //0\r\n        uint manufactured_product_quantity;         //1            \r\n        uint manufactured_product_mrp;              //2        \r\n        uint manufactured_product_selling_price;    //3                    \r\n        string manufactured_product_name;           //4            \r\n        string manufactured_product_buyer_name;     //5                \r\n        string manufactured_product_loaction;       //6                \r\n        string manufactured_product_selling_date;   //7                    \r\n        string manufactured_product_mfg_date;       //8                \r\n        string manufactured_product_exp_date;       //9                \r\n        string manufactured_product_description;    //10                    \r\n        uint[] raw_batch_no;                        //11\r\n        string[] manufactured_processes;            //12\r\n    }\r\n\r\n    mapping(uint => ManufacturerDetails) public manufacturerDetailsMap;\r\n\r\n    function addManufacturerDetails(\r\n        uint[4] memory _uint_args,\r\n        string[7] memory _string_args,\r\n        uint[] memory _raw_batch_no,\r\n        string[] memory _manufactured_processes\r\n    ) public {\r\n        manufacturerDetailsMap[_uint_args[0]] = ManufacturerDetails(\r\n                                                    _uint_args[0],\r\n                                                    _uint_args[1],\r\n                                                    _uint_args[2],\r\n                                                    _uint_args[3],\r\n                                                    _string_args[0],\r\n                                                    _string_args[1],\r\n                                                    _string_args[2],\r\n                                                    _string_args[3],\r\n                                                    _string_args[4],\r\n                                                    _string_args[5],\r\n                                                    _string_args[6],\r\n                                                    _raw_batch_no,\r\n                                                    _manufactured_processes);\r\n\r\n        addManufacturerHashDetails(_uint_args[0], _raw_batch_no);\r\n    }\r\n\r\n    function getRawProductDetails(uint _product_id) public {\r\n        uint[] memory processed_raw = manufacturerDetailsMap[_product_id].raw_batch_no;\r\n        uint[] memory temp;\r\n        delete raw_products;\r\n        for(uint i = 0; i < processed_raw.length; i++) {\r\n            temp = preProcessorDetailsMap[processed_raw[i]].raw_batch_no;\r\n            for(uint j = 0; j < temp.length; j++) {\r\n                raw_products.push(temp[j]);\r\n            }\r\n        }\r\n    }\r\n\r\n    function returnRawProductDetails() public returns(uint[] memory) {\r\n        return raw_products;\r\n    }\r\n}",
  "sourcePath": "C:/Users/AMITESH/Documents/Study/SIH/Final/Final/contracts/Model.sol",
  "compiler": {
    "name": "solc",
    "version": "0.5.0+commit.1d4f565a.Emscripten.clang"
  },
  "schemaVersion": "3.0.1",
  "updatedAt": "2022-08-27T22:41:25.346Z",
  "devdoc": {
    "methods": {}
  },
  "userdoc": {
    "methods": {}
  }
}