{
  "contractName": "Model",
  "abi": [
    {
      "constant": true,
      "inputs": [
        {
          "name": "",
          "type": "uint256"
        }
      ],
      "name": "manufacturerDetailsMap",
      "outputs": [
        {
          "name": "batch_no",
          "type": "uint256"
        },
        {
          "name": "manufactured_product_quantity",
          "type": "uint256"
        },
        {
          "name": "manufactured_product_mrp",
          "type": "uint256"
        },
        {
          "name": "manufactured_product_selling_price",
          "type": "uint256"
        },
        {
          "name": "manufactured_product_name",
          "type": "string"
        },
        {
          "name": "manufactured_product_buyer_name",
          "type": "string"
        },
        {
          "name": "manufactured_product_loaction",
          "type": "string"
        },
        {
          "name": "manufactured_product_selling_date",
          "type": "string"
        },
        {
          "name": "manufactured_product_mfg_date",
          "type": "string"
        },
        {
          "name": "manufactured_product_exp_date",
          "type": "string"
        },
        {
          "name": "manufactured_product_description",
          "type": "string"
        }
      ],
      "payable": false,
      "stateMutability": "view",
      "type": "function",
      "signature": "0x476ca6f6"
    },
    {
      "constant": true,
      "inputs": [
        {
          "name": "",
          "type": "uint256"
        }
      ],
      "name": "farmerDetailsMap",
      "outputs": [
        {
          "name": "batch_no",
          "type": "uint256"
        },
        {
          "name": "crop_name",
          "type": "string"
        },
        {
          "name": "buyer_name",
          "type": "string"
        },
        {
          "name": "location",
          "type": "string"
        },
        {
          "name": "crop_quantity",
          "type": "uint256"
        },
        {
          "name": "crop_selling_price",
          "type": "uint256"
        },
        {
          "name": "selling_date",
          "type": "string"
        },
        {
          "name": "crop_description",
          "type": "string"
        }
      ],
      "payable": false,
      "stateMutability": "view",
      "type": "function",
      "signature": "0xa2a5d2ab"
    },
    {
      "constant": true,
      "inputs": [
        {
          "name": "",
          "type": "uint256"
        },
        {
          "name": "",
          "type": "uint256"
        }
      ],
      "name": "preprocessorHash",
      "outputs": [
        {
          "name": "",
          "type": "uint256"
        }
      ],
      "payable": false,
      "stateMutability": "view",
      "type": "function",
      "signature": "0xb93ac27d"
    },
    {
      "constant": true,
      "inputs": [
        {
          "name": "",
          "type": "uint256"
        }
      ],
      "name": "preProcessorDetailsMap",
      "outputs": [
        {
          "name": "batch_no",
          "type": "uint256"
        },
        {
          "name": "processed_product_quantity",
          "type": "uint256"
        },
        {
          "name": "processed_product_selling_price",
          "type": "uint256"
        },
        {
          "name": "processed_product_name",
          "type": "string"
        },
        {
          "name": "processed_product_buyer_name",
          "type": "string"
        },
        {
          "name": "processed_product_location",
          "type": "string"
        },
        {
          "name": "processed_product_preocessing_date",
          "type": "string"
        },
        {
          "name": "processed_product_selling_date",
          "type": "string"
        },
        {
          "name": "processed_product_description",
          "type": "string"
        }
      ],
      "payable": false,
      "stateMutability": "view",
      "type": "function",
      "signature": "0xc5fa72a4"
    },
    {
      "constant": true,
      "inputs": [
        {
          "name": "",
          "type": "uint256"
        },
        {
          "name": "",
          "type": "uint256"
        }
      ],
      "name": "manufacturerHash",
      "outputs": [
        {
          "name": "",
          "type": "uint256"
        }
      ],
      "payable": false,
      "stateMutability": "view",
      "type": "function",
      "signature": "0xe97d5c0e"
    },
    {
      "constant": false,
      "inputs": [
        {
          "name": "_product_batch_no",
          "type": "uint256"
        },
        {
          "name": "_raw_batch_no_arr",
          "type": "uint256[]"
        }
      ],
      "name": "addPreProcessorHashDetails",
      "outputs": [],
      "payable": false,
      "stateMutability": "nonpayable",
      "type": "function",
      "signature": "0x88c18b52"
    },
    {
      "constant": false,
      "inputs": [
        {
          "name": "_product_batch_no",
          "type": "uint256"
        },
        {
          "name": "_raw_batch_no_arr",
          "type": "uint256[]"
        }
      ],
      "name": "addManufacturerHashDetails",
      "outputs": [],
      "payable": false,
      "stateMutability": "nonpayable",
      "type": "function",
      "signature": "0xc3740565"
    },
    {
      "constant": false,
      "inputs": [
        {
          "name": "_batch_no",
          "type": "uint256"
        },
        {
          "name": "_crop_name",
          "type": "string"
        },
        {
          "name": "_buyer_name",
          "type": "string"
        },
        {
          "name": "_location",
          "type": "string"
        },
        {
          "name": "_crop_quantity",
          "type": "uint256"
        },
        {
          "name": "_crop_selling_price",
          "type": "uint256"
        },
        {
          "name": "_selling_date",
          "type": "string"
        },
        {
          "name": "_crop_description",
          "type": "string"
        }
      ],
      "name": "addFarmerDetails",
      "outputs": [],
      "payable": false,
      "stateMutability": "nonpayable",
      "type": "function",
      "signature": "0x5eddd96f"
    },
    {
      "constant": false,
      "inputs": [
        {
          "name": "_uint_args",
          "type": "uint256[3]"
        },
        {
          "name": "_string_args",
          "type": "string[6]"
        },
        {
          "name": "_raw_batch_no",
          "type": "uint256[]"
        }
      ],
      "name": "addPreProcessorDetails",
      "outputs": [],
      "payable": false,
      "stateMutability": "nonpayable",
      "type": "function",
      "signature": "0x0fb77673"
    },
    {
      "constant": false,
      "inputs": [
        {
          "name": "_uint_args",
          "type": "uint256[4]"
        },
        {
          "name": "_string_args",
          "type": "string[7]"
        },
        {
          "name": "_raw_batch_no",
          "type": "uint256[]"
        }
      ],
      "name": "addManufacturerDetails",
      "outputs": [],
      "payable": false,
      "stateMutability": "nonpayable",
      "type": "function",
      "signature": "0x88ea6fb9"
    }
  ],
  "bytecode": "0x608060405234801561001057600080fd5b50612060806100206000396000f3fe6080604052600436106100a4576000357c0100000000000000000000000000000000000000000000000000000000900463ffffffff1680630fb77673146100a9578063476ca6f6146100d25780635eddd96f1461011957806388c18b521461014257806388ea6fb91461016b578063a2a5d2ab14610194578063b93ac27d146101d8578063c374056514610215578063c5fa72a41461023e578063e97d5c0e14610283575b600080fd5b3480156100b557600080fd5b506100d060048036036100cb919081019061190a565b6102c0565b005b3480156100de57600080fd5b506100f960048036036100f49190810190611a08565b6104e8565b6040516101109b9a99989796959493929190611da3565b60405180910390f35b34801561012557600080fd5b50610140600480360361013b9190810190611a85565b61096a565b005b34801561014e57600080fd5b5061016960048036036101649190810190611a31565b610a74565b005b34801561017757600080fd5b50610192600480360361018d9190810190611989565b610a9f565b005b3480156101a057600080fd5b506101bb60048036036101b69190810190611a08565b610d22565b6040516101cf989796959493929190611c4b565b60405180910390f35b3480156101e457600080fd5b506101ff60048036036101fa9190810190611baf565b611062565b60405161020c9190611c30565b60405180910390f35b34801561022157600080fd5b5061023c60048036036102379190810190611a31565b611092565b005b34801561024a57600080fd5b5061026560048036036102609190810190611a08565b6110be565b60405161027a99989796959493929190611cec565b60405180910390f35b34801561028f57600080fd5b506102aa60048036036102a59190810190611baf565b61149c565b6040516102b79190611c30565b60405180910390f35b610140604051908101604052808460006003811015156102dc57fe5b602002015181526020018460016003811015156102f557fe5b6020020151815260200184600260038110151561030e57fe5b6020020151815260200183600060068110151561032757fe5b6020020151815260200183600160068110151561034057fe5b6020020151815260200183600260068110151561035957fe5b6020020151815260200183600360068110151561037257fe5b6020020151815260200183600460068110151561038b57fe5b602002015181526020018360056006811015156103a457fe5b6020020151815260200182815250600360008560006003811015156103c557fe5b6020020151815260200190815260200160002060008201518160000155602082015181600101556040820151816002015560608201518160030190805190602001906104129291906114cc565b50608082015181600401908051906020019061042f9291906114cc565b5060a082015181600501908051906020019061044c9291906114cc565b5060c08201518160060190805190602001906104699291906114cc565b5060e08201518160070190805190602001906104869291906114cc565b506101008201518160080190805190602001906104a49291906114cc565b506101208201518160090190805190602001906104c292919061154c565b509050506104e38360006003811015156104d857fe5b602002015182610a74565b505050565b6004602052806000526040600020600091509050806000015490806001015490806002015490806003015490806004018054600181600116156101000203166002900480601f0160208091040260200160405190810160405280929190818152602001828054600181600116156101000203166002900480156105ac5780601f10610581576101008083540402835291602001916105ac565b820191906000526020600020905b81548152906001019060200180831161058f57829003601f168201915b505050505090806005018054600181600116156101000203166002900480601f01602080910402602001604051908101604052809291908181526020018280546001816001161561010002031660029004801561064a5780601f1061061f5761010080835404028352916020019161064a565b820191906000526020600020905b81548152906001019060200180831161062d57829003601f168201915b505050505090806006018054600181600116156101000203166002900480601f0160208091040260200160405190810160405280929190818152602001828054600181600116156101000203166002900480156106e85780601f106106bd576101008083540402835291602001916106e8565b820191906000526020600020905b8154815290600101906020018083116106cb57829003601f168201915b505050505090806007018054600181600116156101000203166002900480601f0160208091040260200160405190810160405280929190818152602001828054600181600116156101000203166002900480156107865780601f1061075b57610100808354040283529160200191610786565b820191906000526020600020905b81548152906001019060200180831161076957829003601f168201915b505050505090806008018054600181600116156101000203166002900480601f0160208091040260200160405190810160405280929190818152602001828054600181600116156101000203166002900480156108245780601f106107f957610100808354040283529160200191610824565b820191906000526020600020905b81548152906001019060200180831161080757829003601f168201915b505050505090806009018054600181600116156101000203166002900480601f0160208091040260200160405190810160405280929190818152602001828054600181600116156101000203166002900480156108c25780601f10610897576101008083540402835291602001916108c2565b820191906000526020600020905b8154815290600101906020018083116108a557829003601f168201915b50505050509080600a018054600181600116156101000203166002900480601f0160208091040260200160405190810160405280929190818152602001828054600181600116156101000203166002900480156109605780601f1061093557610100808354040283529160200191610960565b820191906000526020600020905b81548152906001019060200180831161094357829003601f168201915b505050505090508b565b6101006040519081016040528089815260200188815260200187815260200186815260200185815260200184815260200183815260200182815250600260008a81526020019081526020016000206000820151816000015560208201518160010190805190602001906109de9291906114cc565b5060408201518160020190805190602001906109fb9291906114cc565b506060820151816003019080519060200190610a189291906114cc565b506080820151816004015560a0820151816005015560c0820151816006019080519060200190610a499291906114cc565b5060e0820151816007019080519060200190610a669291906114cc565b509050505050505050505050565b806000808481526020019081526020016000209080519060200190610a9a929190611599565b505050565b61018060405190810160405280846000600481101515610abb57fe5b60200201518152602001846001600481101515610ad457fe5b60200201518152602001846002600481101515610aed57fe5b60200201518152602001846003600481101515610b0657fe5b60200201518152602001836000600781101515610b1f57fe5b60200201518152602001836001600781101515610b3857fe5b60200201518152602001836002600781101515610b5157fe5b60200201518152602001836003600781101515610b6a57fe5b60200201518152602001836004600781101515610b8357fe5b60200201518152602001836005600781101515610b9c57fe5b60200201518152602001836006600781101515610bb557fe5b602002015181526020018281525060046000856000600481101515610bd657fe5b60200201518152602001908152602001600020600082015181600001556020820151816001015560408201518160020155606082015181600301556080820151816004019080519060200190610c2d9291906114cc565b5060a0820151816005019080519060200190610c4a9291906114cc565b5060c0820151816006019080519060200190610c679291906114cc565b5060e0820151816007019080519060200190610c849291906114cc565b50610100820151816008019080519060200190610ca29291906114cc565b50610120820151816009019080519060200190610cc09291906114cc565b5061014082015181600a019080519060200190610cde9291906114cc565b5061016082015181600b019080519060200190610cfc92919061154c565b50905050610d1d836000600481101515610d1257fe5b602002015182611092565b505050565b6002602052806000526040600020600091509050806000015490806001018054600181600116156101000203166002900480601f016020809104026020016040519081016040528092919081815260200182805460018160011615610100020316600290048015610dd45780601f10610da957610100808354040283529160200191610dd4565b820191906000526020600020905b815481529060010190602001808311610db757829003601f168201915b505050505090806002018054600181600116156101000203166002900480601f016020809104026020016040519081016040528092919081815260200182805460018160011615610100020316600290048015610e725780601f10610e4757610100808354040283529160200191610e72565b820191906000526020600020905b815481529060010190602001808311610e5557829003601f168201915b505050505090806003018054600181600116156101000203166002900480601f016020809104026020016040519081016040528092919081815260200182805460018160011615610100020316600290048015610f105780601f10610ee557610100808354040283529160200191610f10565b820191906000526020600020905b815481529060010190602001808311610ef357829003601f168201915b505050505090806004015490806005015490806006018054600181600116156101000203166002900480601f016020809104026020016040519081016040528092919081815260200182805460018160011615610100020316600290048015610fba5780601f10610f8f57610100808354040283529160200191610fba565b820191906000526020600020905b815481529060010190602001808311610f9d57829003601f168201915b505050505090806007018054600181600116156101000203166002900480601f0160208091040260200160405190810160405280929190818152602001828054600181600116156101000203166002900480156110585780601f1061102d57610100808354040283529160200191611058565b820191906000526020600020905b81548152906001019060200180831161103b57829003601f168201915b5050505050905088565b60006020528160005260406000208181548110151561107d57fe5b90600052602060002001600091509150505481565b806001600084815260200190815260200160002090805190602001906110b9929190611599565b505050565b6003602052806000526040600020600091509050806000015490806001015490806002015490806003018054600181600116156101000203166002900480601f01602080910402602001604051908101604052809291908181526020018280546001816001161561010002031660029004801561117c5780601f106111515761010080835404028352916020019161117c565b820191906000526020600020905b81548152906001019060200180831161115f57829003601f168201915b505050505090806004018054600181600116156101000203166002900480601f01602080910402602001604051908101604052809291908181526020018280546001816001161561010002031660029004801561121a5780601f106111ef5761010080835404028352916020019161121a565b820191906000526020600020905b8154815290600101906020018083116111fd57829003601f168201915b505050505090806005018054600181600116156101000203166002900480601f0160208091040260200160405190810160405280929190818152602001828054600181600116156101000203166002900480156112b85780601f1061128d576101008083540402835291602001916112b8565b820191906000526020600020905b81548152906001019060200180831161129b57829003601f168201915b505050505090806006018054600181600116156101000203166002900480601f0160208091040260200160405190810160405280929190818152602001828054600181600116156101000203166002900480156113565780601f1061132b57610100808354040283529160200191611356565b820191906000526020600020905b81548152906001019060200180831161133957829003601f168201915b505050505090806007018054600181600116156101000203166002900480601f0160208091040260200160405190810160405280929190818152602001828054600181600116156101000203166002900480156113f45780601f106113c9576101008083540402835291602001916113f4565b820191906000526020600020905b8154815290600101906020018083116113d757829003601f168201915b505050505090806008018054600181600116156101000203166002900480601f0160208091040260200160405190810160405280929190818152602001828054600181600116156101000203166002900480156114925780601f1061146757610100808354040283529160200191611492565b820191906000526020600020905b81548152906001019060200180831161147557829003601f168201915b5050505050905089565b6001602052816000526040600020818154811015156114b757fe5b90600052602060002001600091509150505481565b828054600181600116156101000203166002900490600052602060002090601f016020900481019282601f1061150d57805160ff191683800117855561153b565b8280016001018555821561153b579182015b8281111561153a57825182559160200191906001019061151f565b5b50905061154891906115e6565b5090565b828054828255906000526020600020908101928215611588579160200282015b8281111561158757825182559160200191906001019061156c565b5b50905061159591906115e6565b5090565b8280548282559060005260206000209081019282156115d5579160200282015b828111156115d45782518255916020019190600101906115b9565b5b5090506115e291906115e6565b5090565b61160891905b808211156116045760008160009055506001016115ec565b5090565b90565b600082601f830112151561161e57600080fd5b600661163161162c82611eac565b611e7f565b9150818360005b83811015611668578135860161164e888261184a565b845260208401935060208301925050600181019050611638565b5050505092915050565b600082601f830112151561168557600080fd5b600761169861169382611ece565b611e7f565b9150818360005b838110156116cf57813586016116b5888261184a565b84526020840193506020830192505060018101905061169f565b5050505092915050565b600082601f83011215156116ec57600080fd5b60036116ff6116fa82611ef0565b611e7f565b9150818385602084028201111561171557600080fd5b60005b83811015611745578161172b88826118f6565b845260208401935060208301925050600181019050611718565b5050505092915050565b600082601f830112151561176257600080fd5b600461177561177082611f12565b611e7f565b9150818385602084028201111561178b57600080fd5b60005b838110156117bb57816117a188826118f6565b84526020840193506020830192505060018101905061178e565b5050505092915050565b600082601f83011215156117d857600080fd5b81356117eb6117e682611f34565b611e7f565b9150818183526020840193506020810190508385602084028201111561181057600080fd5b60005b83811015611840578161182688826118f6565b845260208401935060208301925050600181019050611813565b5050505092915050565b600082601f830112151561185d57600080fd5b813561187061186b82611f5c565b611e7f565b9150808252602083016020830185838301111561188c57600080fd5b611897838284611fd3565b50505092915050565b600082601f83011215156118b357600080fd5b81356118c66118c182611f88565b611e7f565b915080825260208301602083018583830111156118e257600080fd5b6118ed838284611fd3565b50505092915050565b60006119028235611fc9565b905092915050565b600080600060a0848603121561191f57600080fd5b600061192d868287016116d9565b935050606084013567ffffffffffffffff81111561194a57600080fd5b6119568682870161160b565b925050608084013567ffffffffffffffff81111561197357600080fd5b61197f868287016117c5565b9150509250925092565b600080600060c0848603121561199e57600080fd5b60006119ac8682870161174f565b935050608084013567ffffffffffffffff8111156119c957600080fd5b6119d586828701611672565b92505060a084013567ffffffffffffffff8111156119f257600080fd5b6119fe868287016117c5565b9150509250925092565b600060208284031215611a1a57600080fd5b6000611a28848285016118f6565b91505092915050565b60008060408385031215611a4457600080fd5b6000611a52858286016118f6565b925050602083013567ffffffffffffffff811115611a6f57600080fd5b611a7b858286016117c5565b9150509250929050565b600080600080600080600080610100898b031215611aa257600080fd5b6000611ab08b828c016118f6565b985050602089013567ffffffffffffffff811115611acd57600080fd5b611ad98b828c016118a0565b975050604089013567ffffffffffffffff811115611af657600080fd5b611b028b828c016118a0565b965050606089013567ffffffffffffffff811115611b1f57600080fd5b611b2b8b828c016118a0565b9550506080611b3c8b828c016118f6565b94505060a0611b4d8b828c016118f6565b93505060c089013567ffffffffffffffff811115611b6a57600080fd5b611b768b828c016118a0565b92505060e089013567ffffffffffffffff811115611b9357600080fd5b611b9f8b828c016118a0565b9150509295985092959890939650565b60008060408385031215611bc257600080fd5b6000611bd0858286016118f6565b9250506020611be1858286016118f6565b9150509250929050565b6000611bf682611fb4565b808452611c0a816020860160208601611fe2565b611c1381612015565b602085010191505092915050565b611c2a81611fbf565b82525050565b6000602082019050611c456000830184611c21565b92915050565b600061010082019050611c61600083018b611c21565b8181036020830152611c73818a611beb565b90508181036040830152611c878189611beb565b90508181036060830152611c9b8188611beb565b9050611caa6080830187611c21565b611cb760a0830186611c21565b81810360c0830152611cc98185611beb565b905081810360e0830152611cdd8184611beb565b90509998505050505050505050565b600061012082019050611d02600083018c611c21565b611d0f602083018b611c21565b611d1c604083018a611c21565b8181036060830152611d2e8189611beb565b90508181036080830152611d428188611beb565b905081810360a0830152611d568187611beb565b905081810360c0830152611d6a8186611beb565b905081810360e0830152611d7e8185611beb565b9050818103610100830152611d938184611beb565b90509a9950505050505050505050565b600061016082019050611db9600083018e611c21565b611dc6602083018d611c21565b611dd3604083018c611c21565b611de0606083018b611c21565b8181036080830152611df2818a611beb565b905081810360a0830152611e068189611beb565b905081810360c0830152611e1a8188611beb565b905081810360e0830152611e2e8187611beb565b9050818103610100830152611e438186611beb565b9050818103610120830152611e588185611beb565b9050818103610140830152611e6d8184611beb565b90509c9b505050505050505050505050565b6000604051905081810181811067ffffffffffffffff82111715611ea257600080fd5b8060405250919050565b600067ffffffffffffffff821115611ec357600080fd5b602082029050919050565b600067ffffffffffffffff821115611ee557600080fd5b602082029050919050565b600067ffffffffffffffff821115611f0757600080fd5b602082029050919050565b600067ffffffffffffffff821115611f2957600080fd5b602082029050919050565b600067ffffffffffffffff821115611f4b57600080fd5b602082029050602081019050919050565b600067ffffffffffffffff821115611f7357600080fd5b601f19601f8301169050602081019050919050565b600067ffffffffffffffff821115611f9f57600080fd5b601f19601f8301169050602081019050919050565b600081519050919050565b6000819050919050565b6000819050919050565b82818337600083830152505050565b60005b83811015612000578082015181840152602081019050611fe5565b8381111561200f576000848401525b50505050565b6000601f19601f830116905091905056fea265627a7a723058208ac4d01c4ca2db95002379bdf41f025a76f8faa6d0b479ed2078f9edd1533e5b6c6578706572696d656e74616cf50037",
  "source": "pragma solidity <=0.6.0;\r\npragma experimental ABIEncoderV2;\r\n\r\ncontract Model {\r\n    \r\n    mapping(uint => uint[]) public preprocessorHash;\r\n    mapping(uint => uint[]) public manufacturerHash;\r\n\r\n    function addPreProcessorHashDetails(uint _product_batch_no, uint[] memory _raw_batch_no_arr) public {\r\n        preprocessorHash[_product_batch_no] = _raw_batch_no_arr;\r\n    }\r\n\r\n    function addManufacturerHashDetails(uint _product_batch_no, uint[] memory _raw_batch_no_arr) public {\r\n        manufacturerHash[_product_batch_no] = _raw_batch_no_arr;\r\n    }\r\n\r\n    struct FarmerDetails {\r\n        uint batch_no;\r\n        string crop_name;\r\n        string buyer_name;\r\n        string location;\r\n        uint crop_quantity;\r\n        uint crop_selling_price;\r\n        string selling_date;\r\n        string crop_description;\r\n    }\r\n\r\n    mapping(uint => FarmerDetails) public farmerDetailsMap;\r\n\r\n    function addFarmerDetails(\r\n        uint _batch_no,\r\n        string memory _crop_name,\r\n        string memory _buyer_name,\r\n        string memory _location,\r\n        uint _crop_quantity,\r\n        uint _crop_selling_price,\r\n        string memory _selling_date,\r\n        string memory _crop_description\r\n    ) public {\r\n        farmerDetailsMap[_batch_no] = FarmerDetails(\r\n                                            _batch_no,\r\n                                            _crop_name,\r\n                                            _buyer_name,\r\n                                            _location,\r\n                                            _crop_quantity,\r\n                                            _crop_selling_price,\r\n                                            _selling_date,\r\n                                            _crop_description);\r\n    }\r\n\r\n    struct PreProcessorDetails {\r\n        uint batch_no;\r\n        uint processed_product_quantity;\r\n        uint processed_product_selling_price;\r\n        string processed_product_name;\r\n        string processed_product_buyer_name;\r\n        string processed_product_location;\r\n        string processed_product_preocessing_date;\r\n        string processed_product_selling_date;\r\n        string processed_product_description;\r\n        uint[] raw_batch_no;\r\n    }\r\n\r\n    mapping(uint => PreProcessorDetails) public preProcessorDetailsMap;\r\n\r\n    function addPreProcessorDetails(\r\n        uint[3] memory _uint_args,\r\n        string[6] memory _string_args,\r\n        uint[] memory _raw_batch_no\r\n    ) public {\r\n        preProcessorDetailsMap[_uint_args[0]] = PreProcessorDetails(\r\n                                                    _uint_args[0],\r\n                                                    _uint_args[1],\r\n                                                    _uint_args[2],\r\n                                                    _string_args[0],\r\n                                                    _string_args[1],\r\n                                                    _string_args[2],\r\n                                                    _string_args[3],\r\n                                                    _string_args[4],\r\n                                                    _string_args[5],\r\n                                                    _raw_batch_no);\r\n        \r\n        addPreProcessorHashDetails(_uint_args[0], _raw_batch_no);\r\n    }\r\n\r\n    struct ManufacturerDetails {\r\n        uint batch_no;\r\n        uint manufactured_product_quantity;\r\n        uint manufactured_product_mrp;\r\n        uint manufactured_product_selling_price;\r\n        string manufactured_product_name;\r\n        string manufactured_product_buyer_name;\r\n        string manufactured_product_loaction;\r\n        string manufactured_product_selling_date;\r\n        string manufactured_product_mfg_date;\r\n        string manufactured_product_exp_date;\r\n        string manufactured_product_description;\r\n        uint[] raw_batch_no;\r\n    }\r\n\r\n    mapping(uint => ManufacturerDetails) public manufacturerDetailsMap;\r\n\r\n    function addManufacturerDetails(\r\n        uint[4] memory _uint_args,\r\n        string[7] memory _string_args,\r\n        uint[] memory _raw_batch_no\r\n    ) public {\r\n        manufacturerDetailsMap[_uint_args[0]] = ManufacturerDetails(\r\n                                                    _uint_args[0],\r\n                                                    _uint_args[1],\r\n                                                    _uint_args[2],\r\n                                                    _uint_args[3],\r\n                                                    _string_args[0],\r\n                                                    _string_args[1],\r\n                                                    _string_args[2],\r\n                                                    _string_args[3],\r\n                                                    _string_args[4],\r\n                                                    _string_args[5],\r\n                                                    _string_args[6],\r\n                                                    _raw_batch_no);\r\n\r\n        addManufacturerHashDetails(_uint_args[0], _raw_batch_no);\r\n    }\r\n}",
  "sourcePath": "C:/Users/AMITESH/Documents/Study/SIH/Final/Final/contracts/Model.sol",
  "compiler": {
    "name": "solc",
    "version": "0.5.0+commit.1d4f565a.Emscripten.clang"
  },
  "schemaVersion": "3.0.1",
  "updatedAt": "2022-08-18T14:57:16.388Z",
  "devdoc": {
    "methods": {}
  },
  "userdoc": {
    "methods": {}
  }
}