{
  "contractName": "Model",
  "abi": [
    {
      "constant": true,
      "inputs": [
        {
          "name": "",
          "type": "uint256"
        }
      ],
      "name": "manufacturerDetailsMap",
      "outputs": [
        {
          "name": "batch_no",
          "type": "uint256"
        },
        {
          "name": "manufactured_product_name",
          "type": "string"
        },
        {
          "name": "manufactured_product_selling_price",
          "type": "uint256"
        },
        {
          "name": "manufactured_product_quantity",
          "type": "uint256"
        }
      ],
      "payable": false,
      "stateMutability": "view",
      "type": "function",
      "signature": "0x476ca6f6"
    },
    {
      "constant": true,
      "inputs": [
        {
          "name": "",
          "type": "uint256"
        }
      ],
      "name": "farmerDetailsMap",
      "outputs": [
        {
          "name": "batch_no",
          "type": "uint256"
        },
        {
          "name": "crop_name",
          "type": "string"
        },
        {
          "name": "crop_selling_price",
          "type": "uint256"
        },
        {
          "name": "crop_quantity",
          "type": "uint256"
        }
      ],
      "payable": false,
      "stateMutability": "view",
      "type": "function",
      "signature": "0xa2a5d2ab"
    },
    {
      "constant": true,
      "inputs": [
        {
          "name": "",
          "type": "uint256"
        },
        {
          "name": "",
          "type": "uint256"
        }
      ],
      "name": "preprocessorHash",
      "outputs": [
        {
          "name": "",
          "type": "uint256"
        }
      ],
      "payable": false,
      "stateMutability": "view",
      "type": "function",
      "signature": "0xb93ac27d"
    },
    {
      "constant": true,
      "inputs": [
        {
          "name": "",
          "type": "uint256"
        }
      ],
      "name": "preProcessorDetailsMap",
      "outputs": [
        {
          "name": "batch_no",
          "type": "uint256"
        },
        {
          "name": "processed_product_name",
          "type": "string"
        },
        {
          "name": "processed_product_selling_price",
          "type": "uint256"
        },
        {
          "name": "processed_product_quantity",
          "type": "uint256"
        }
      ],
      "payable": false,
      "stateMutability": "view",
      "type": "function",
      "signature": "0xc5fa72a4"
    },
    {
      "constant": true,
      "inputs": [
        {
          "name": "",
          "type": "uint256"
        },
        {
          "name": "",
          "type": "uint256"
        }
      ],
      "name": "manufacturerHash",
      "outputs": [
        {
          "name": "",
          "type": "uint256"
        }
      ],
      "payable": false,
      "stateMutability": "view",
      "type": "function",
      "signature": "0xe97d5c0e"
    },
    {
      "constant": false,
      "inputs": [
        {
          "name": "_product_batch_no",
          "type": "uint256"
        },
        {
          "name": "_raw_batch_no_arr",
          "type": "uint256[]"
        }
      ],
      "name": "addPreProcessorHashDetails",
      "outputs": [],
      "payable": false,
      "stateMutability": "nonpayable",
      "type": "function",
      "signature": "0x88c18b52"
    },
    {
      "constant": false,
      "inputs": [
        {
          "name": "_product_batch_no",
          "type": "uint256"
        },
        {
          "name": "_raw_batch_no_arr",
          "type": "uint256[]"
        }
      ],
      "name": "addManufacturerHashDetails",
      "outputs": [],
      "payable": false,
      "stateMutability": "nonpayable",
      "type": "function",
      "signature": "0xc3740565"
    },
    {
      "constant": false,
      "inputs": [
        {
          "name": "_batch_no",
          "type": "uint256"
        },
        {
          "name": "_crop_name",
          "type": "string"
        },
        {
          "name": "_crop_selling_price",
          "type": "uint256"
        },
        {
          "name": "_crop_quantity",
          "type": "uint256"
        }
      ],
      "name": "addFarmerDetails",
      "outputs": [],
      "payable": false,
      "stateMutability": "nonpayable",
      "type": "function",
      "signature": "0x8c0e43f4"
    },
    {
      "constant": false,
      "inputs": [
        {
          "name": "_batch_no",
          "type": "uint256"
        },
        {
          "name": "_processed_product_name",
          "type": "string"
        },
        {
          "name": "_processed_product_selling_price",
          "type": "uint256"
        },
        {
          "name": "_processed_product_quantity",
          "type": "uint256"
        },
        {
          "name": "_raw_batch_no",
          "type": "uint256[]"
        }
      ],
      "name": "addPreProcessorDetails",
      "outputs": [],
      "payable": false,
      "stateMutability": "nonpayable",
      "type": "function",
      "signature": "0x6ed435d9"
    },
    {
      "constant": false,
      "inputs": [
        {
          "name": "_batch_no",
          "type": "uint256"
        },
        {
          "name": "_manufactured_product_name",
          "type": "string"
        },
        {
          "name": "_manufactured_product_selling_price",
          "type": "uint256"
        },
        {
          "name": "_manufactured_product_quantity",
          "type": "uint256"
        },
        {
          "name": "_raw_batch_no",
          "type": "uint256[]"
        }
      ],
      "name": "addManufacturerDetails",
      "outputs": [],
      "payable": false,
      "stateMutability": "nonpayable",
      "type": "function",
      "signature": "0xbed924a0"
    }
  ],
  "bytecode": "0x608060405234801561001057600080fd5b50610f6f806100206000396000f3fe6080604052600436106100a4576000357c0100000000000000000000000000000000000000000000000000000000900463ffffffff168063476ca6f6146100a95780636ed435d91461017257806388c18b52146102ec5780638c0e43f4146103bb578063a2a5d2ab146104a1578063b93ac27d1461056a578063bed924a0146105c3578063c37405651461073d578063c5fa72a41461080c578063e97d5c0e146108d5575b600080fd5b3480156100b557600080fd5b506100e2600480360360208110156100cc57600080fd5b810190808035906020019092919050505061092e565b6040518085815260200180602001848152602001838152602001828103825285818151815260200191508051906020019080838360005b83811015610134578082015181840152602081019050610119565b50505050905090810190601f1680156101615780820380516001836020036101000a031916815260200191505b509550505050505060405180910390f35b34801561017e57600080fd5b506102ea600480360360a081101561019557600080fd5b8101908080359060200190929190803590602001906401000000008111156101bc57600080fd5b8201836020820111156101ce57600080fd5b803590602001918460018302840111640100000000831117156101f057600080fd5b91908080601f016020809104026020016040519081016040528093929190818152602001838380828437600081840152601f19601f82011690508083019250505050505050919291929080359060200190929190803590602001909291908035906020019064010000000081111561026757600080fd5b82018360208201111561027957600080fd5b8035906020019184602083028401116401000000008311171561029b57600080fd5b919080806020026020016040519081016040528093929190818152602001838360200280828437600081840152601f19601f8201169050808301925050505050505091929192905050506109f6565b005b3480156102f857600080fd5b506103b96004803603604081101561030f57600080fd5b81019080803590602001909291908035906020019064010000000081111561033657600080fd5b82018360208201111561034857600080fd5b8035906020019184602083028401116401000000008311171561036a57600080fd5b919080806020026020016040519081016040528093929190818152602001838360200280828437600081840152601f19601f820116905080830192505050505050509192919290505050610a9d565b005b3480156103c757600080fd5b5061049f600480360360808110156103de57600080fd5b81019080803590602001909291908035906020019064010000000081111561040557600080fd5b82018360208201111561041757600080fd5b8035906020019184600183028401116401000000008311171561043957600080fd5b91908080601f016020809104026020016040519081016040528093929190818152602001838380828437600081840152601f19601f8201169050808301925050505050505091929192908035906020019092919080359060200190929190505050610ac8565b005b3480156104ad57600080fd5b506104da600480360360208110156104c457600080fd5b8101908080359060200190929190505050610b41565b6040518085815260200180602001848152602001838152602001828103825285818151815260200191508051906020019080838360005b8381101561052c578082015181840152602081019050610511565b50505050905090810190601f1680156105595780820380516001836020036101000a031916815260200191505b509550505050505060405180910390f35b34801561057657600080fd5b506105ad6004803603604081101561058d57600080fd5b810190808035906020019092919080359060200190929190505050610c09565b6040518082815260200191505060405180910390f35b3480156105cf57600080fd5b5061073b600480360360a08110156105e657600080fd5b81019080803590602001909291908035906020019064010000000081111561060d57600080fd5b82018360208201111561061f57600080fd5b8035906020019184600183028401116401000000008311171561064157600080fd5b91908080601f016020809104026020016040519081016040528093929190818152602001838380828437600081840152601f19601f8201169050808301925050505050505091929192908035906020019092919080359060200190929190803590602001906401000000008111156106b857600080fd5b8201836020820111156106ca57600080fd5b803590602001918460208302840111640100000000831117156106ec57600080fd5b919080806020026020016040519081016040528093929190818152602001838360200280828437600081840152601f19601f820116905080830192505050505050509192919290505050610c39565b005b34801561074957600080fd5b5061080a6004803603604081101561076057600080fd5b81019080803590602001909291908035906020019064010000000081111561078757600080fd5b82018360208201111561079957600080fd5b803590602001918460208302840111640100000000831117156107bb57600080fd5b919080806020026020016040519081016040528093929190818152602001838360200280828437600081840152601f19601f820116905080830192505050505050509192919290505050610ce0565b005b34801561081857600080fd5b506108456004803603602081101561082f57600080fd5b8101908080359060200190929190505050610d0c565b6040518085815260200180602001848152602001838152602001828103825285818151815260200191508051906020019080838360005b8381101561089757808201518184015260208101905061087c565b50505050905090810190601f1680156108c45780820380516001836020036101000a031916815260200191505b509550505050505060405180910390f35b3480156108e157600080fd5b50610918600480360360408110156108f857600080fd5b810190808035906020019092919080359060200190929190505050610dd4565b6040518082815260200191505060405180910390f35b6004602052806000526040600020600091509050806000015490806001018054600181600116156101000203166002900480601f0160208091040260200160405190810160405280929190818152602001828054600181600116156101000203166002900480156109e05780601f106109b5576101008083540402835291602001916109e0565b820191906000526020600020905b8154815290600101906020018083116109c357829003601f168201915b5050505050908060020154908060030154905084565b60a0604051908101604052808681526020018581526020018481526020018381526020018281525060036000878152602001908152602001600020600082015181600001556020820151816001019080519060200190610a57929190610e04565b5060408201518160020155606082015181600301556080820151816004019080519060200190610a88929190610e84565b50905050610a968582610a9d565b5050505050565b806000808481526020019081526020016000209080519060200190610ac3929190610ed1565b505050565b6080604051908101604052808581526020018481526020018381526020018281525060026000868152602001908152602001600020600082015181600001556020820151816001019080519060200190610b23929190610e04565b50604082015181600201556060820151816003015590505050505050565b6002602052806000526040600020600091509050806000015490806001018054600181600116156101000203166002900480601f016020809104026020016040519081016040528092919081815260200182805460018160011615610100020316600290048015610bf35780601f10610bc857610100808354040283529160200191610bf3565b820191906000526020600020905b815481529060010190602001808311610bd657829003601f168201915b5050505050908060020154908060030154905084565b600060205281600052604060002081815481101515610c2457fe5b90600052602060002001600091509150505481565b60a0604051908101604052808681526020018581526020018481526020018381526020018281525060046000878152602001908152602001600020600082015181600001556020820151816001019080519060200190610c9a929190610e04565b5060408201518160020155606082015181600301556080820151816004019080519060200190610ccb929190610e84565b50905050610cd98582610ce0565b5050505050565b80600160008481526020019081526020016000209080519060200190610d07929190610ed1565b505050565b6003602052806000526040600020600091509050806000015490806001018054600181600116156101000203166002900480601f016020809104026020016040519081016040528092919081815260200182805460018160011615610100020316600290048015610dbe5780601f10610d9357610100808354040283529160200191610dbe565b820191906000526020600020905b815481529060010190602001808311610da157829003601f168201915b5050505050908060020154908060030154905084565b600160205281600052604060002081815481101515610def57fe5b90600052602060002001600091509150505481565b828054600181600116156101000203166002900490600052602060002090601f016020900481019282601f10610e4557805160ff1916838001178555610e73565b82800160010185558215610e73579182015b82811115610e72578251825591602001919060010190610e57565b5b509050610e809190610f1e565b5090565b828054828255906000526020600020908101928215610ec0579160200282015b82811115610ebf578251825591602001919060010190610ea4565b5b509050610ecd9190610f1e565b5090565b828054828255906000526020600020908101928215610f0d579160200282015b82811115610f0c578251825591602001919060010190610ef1565b5b509050610f1a9190610f1e565b5090565b610f4091905b80821115610f3c576000816000905550600101610f24565b5090565b9056fea165627a7a72305820b47ebe828cbf2eb1ff58065c872fe9470a1d96149f654e665bcc140d6c9d94660029",
  "source": "pragma solidity <=0.6.0;\r\n\r\ncontract Model {\r\n    \r\n    mapping(uint => uint[]) public preprocessorHash;\r\n    mapping(uint => uint[]) public manufacturerHash;\r\n\r\n    function addPreProcessorHashDetails(uint _product_batch_no, uint[] memory _raw_batch_no_arr) public {\r\n        preprocessorHash[_product_batch_no] = _raw_batch_no_arr;\r\n    }\r\n\r\n    function addManufacturerHashDetails(uint _product_batch_no, uint[] memory _raw_batch_no_arr) public {\r\n        manufacturerHash[_product_batch_no] = _raw_batch_no_arr;\r\n    }\r\n\r\n    struct FarmerDetails {\r\n        uint batch_no;\r\n        string crop_name;\r\n        uint crop_selling_price;\r\n        uint crop_quantity;\r\n    }\r\n\r\n    mapping(uint => FarmerDetails) public farmerDetailsMap;\r\n\r\n    function addFarmerDetails(\r\n        uint _batch_no,\r\n        string memory _crop_name,\r\n        uint _crop_selling_price,\r\n        uint _crop_quantity\r\n    ) public {\r\n        farmerDetailsMap[_batch_no] = FarmerDetails(\r\n                                                    _batch_no,\r\n                                                    _crop_name,\r\n                                                    _crop_selling_price,\r\n                                                    _crop_quantity);\r\n    }\r\n\r\n    struct PreProcessorDetails {\r\n        uint batch_no;\r\n        string processed_product_name;\r\n        uint processed_product_selling_price;\r\n        uint processed_product_quantity;\r\n        uint[] raw_batch_no;\r\n    }\r\n\r\n    mapping(uint => PreProcessorDetails) public preProcessorDetailsMap;\r\n\r\n    function addPreProcessorDetails(\r\n        uint _batch_no,\r\n        string memory _processed_product_name,\r\n        uint _processed_product_selling_price,\r\n        uint _processed_product_quantity,\r\n        uint[] memory _raw_batch_no\r\n    ) public {\r\n        preProcessorDetailsMap[_batch_no] = PreProcessorDetails(\r\n                                                    _batch_no,\r\n                                                    _processed_product_name,\r\n                                                    _processed_product_selling_price,\r\n                                                    _processed_product_quantity,\r\n                                                    _raw_batch_no);\r\n        \r\n        addPreProcessorHashDetails(_batch_no, _raw_batch_no);\r\n    }\r\n\r\n    struct ManufacturerDetails {\r\n        uint batch_no;\r\n        string manufactured_product_name;\r\n        uint manufactured_product_selling_price;\r\n        uint manufactured_product_quantity;\r\n        uint[] raw_batch_no;\r\n    }\r\n\r\n    mapping(uint => ManufacturerDetails) public manufacturerDetailsMap;\r\n\r\n    function addManufacturerDetails(\r\n        uint _batch_no,\r\n        string memory _manufactured_product_name,\r\n        uint _manufactured_product_selling_price,\r\n        uint _manufactured_product_quantity,\r\n        uint[] memory _raw_batch_no\r\n    ) public {\r\n        manufacturerDetailsMap[_batch_no] = ManufacturerDetails(\r\n                                                    _batch_no,\r\n                                                    _manufactured_product_name,\r\n                                                    _manufactured_product_selling_price,\r\n                                                    _manufactured_product_quantity,\r\n                                                    _raw_batch_no);\r\n\r\n        addManufacturerHashDetails(_batch_no, _raw_batch_no);\r\n    }\r\n}",
  "sourcePath": "C:/Users/AMITESH/Documents/Study/SIH/Final/Final/contracts/Model.sol",
  "compiler": {
    "name": "solc",
    "version": "0.5.0+commit.1d4f565a.Emscripten.clang"
  },
  "schemaVersion": "3.0.1",
  "updatedAt": "2022-08-11T10:26:42.311Z",
  "devdoc": {
    "methods": {}
  },
  "userdoc": {
    "methods": {}
  }
}